{
  "_format": "hh3-artifact-1",
  "contractName": "AgentRegistry",
  "sourceName": "contracts/AgentRegistry.sol",
  "abi": [
    {
      "inputs": [],
      "stateMutability": "nonpayable",
      "type": "constructor"
    },
    {
      "inputs": [
        {
          "internalType": "address",
          "name": "owner",
          "type": "address"
        }
      ],
      "name": "OwnableInvalidOwner",
      "type": "error"
    },
    {
      "inputs": [
        {
          "internalType": "address",
          "name": "account",
          "type": "address"
        }
      ],
      "name": "OwnableUnauthorizedAccount",
      "type": "error"
    },
    {
      "anonymous": false,
      "inputs": [
        {
          "indexed": true,
          "internalType": "address",
          "name": "agent",
          "type": "address"
        },
        {
          "indexed": false,
          "internalType": "bytes32",
          "name": "achievement",
          "type": "bytes32"
        }
      ],
      "name": "AchievementUnlocked",
      "type": "event"
    },
    {
      "anonymous": false,
      "inputs": [
        {
          "indexed": true,
          "internalType": "address",
          "name": "wallet",
          "type": "address"
        },
        {
          "indexed": false,
          "internalType": "string",
          "name": "moltbookId",
          "type": "string"
        },
        {
          "indexed": false,
          "internalType": "uint256",
          "name": "initialElo",
          "type": "uint256"
        }
      ],
      "name": "AgentRegistered",
      "type": "event"
    },
    {
      "anonymous": false,
      "inputs": [
        {
          "indexed": true,
          "internalType": "address",
          "name": "oracle",
          "type": "address"
        }
      ],
      "name": "OracleAdded",
      "type": "event"
    },
    {
      "anonymous": false,
      "inputs": [
        {
          "indexed": true,
          "internalType": "address",
          "name": "oracle",
          "type": "address"
        }
      ],
      "name": "OracleRemoved",
      "type": "event"
    },
    {
      "anonymous": false,
      "inputs": [
        {
          "indexed": true,
          "internalType": "address",
          "name": "previousOwner",
          "type": "address"
        },
        {
          "indexed": true,
          "internalType": "address",
          "name": "newOwner",
          "type": "address"
        }
      ],
      "name": "OwnershipTransferred",
      "type": "event"
    },
    {
      "anonymous": false,
      "inputs": [
        {
          "indexed": true,
          "internalType": "address",
          "name": "agent",
          "type": "address"
        },
        {
          "indexed": false,
          "internalType": "uint256",
          "name": "newElo",
          "type": "uint256"
        },
        {
          "indexed": false,
          "internalType": "uint256",
          "name": "wins",
          "type": "uint256"
        },
        {
          "indexed": false,
          "internalType": "uint256",
          "name": "losses",
          "type": "uint256"
        }
      ],
      "name": "StatsUpdated",
      "type": "event"
    },
    {
      "inputs": [],
      "name": "CHAMPION",
      "outputs": [
        {
          "internalType": "bytes32",
          "name": "",
          "type": "bytes32"
        }
      ],
      "stateMutability": "view",
      "type": "function"
    },
    {
      "inputs": [],
      "name": "ELO_SCALE",
      "outputs": [
        {
          "internalType": "uint256",
          "name": "",
          "type": "uint256"
        }
      ],
      "stateMutability": "view",
      "type": "function"
    },
    {
      "inputs": [],
      "name": "FIRST_BLOOD",
      "outputs": [
        {
          "internalType": "bytes32",
          "name": "",
          "type": "bytes32"
        }
      ],
      "stateMutability": "view",
      "type": "function"
    },
    {
      "inputs": [],
      "name": "GIANT_SLAYER",
      "outputs": [
        {
          "internalType": "bytes32",
          "name": "",
          "type": "bytes32"
        }
      ],
      "stateMutability": "view",
      "type": "function"
    },
    {
      "inputs": [],
      "name": "HIGH_ROLLER",
      "outputs": [
        {
          "internalType": "bytes32",
          "name": "",
          "type": "bytes32"
        }
      ],
      "stateMutability": "view",
      "type": "function"
    },
    {
      "inputs": [],
      "name": "INITIAL_ELO",
      "outputs": [
        {
          "internalType": "uint256",
          "name": "",
          "type": "uint256"
        }
      ],
      "stateMutability": "view",
      "type": "function"
    },
    {
      "inputs": [],
      "name": "K_FACTOR",
      "outputs": [
        {
          "internalType": "uint256",
          "name": "",
          "type": "uint256"
        }
      ],
      "stateMutability": "view",
      "type": "function"
    },
    {
      "inputs": [],
      "name": "LEGEND",
      "outputs": [
        {
          "internalType": "bytes32",
          "name": "",
          "type": "bytes32"
        }
      ],
      "stateMutability": "view",
      "type": "function"
    },
    {
      "inputs": [],
      "name": "UNDEFEATED_5",
      "outputs": [
        {
          "internalType": "bytes32",
          "name": "",
          "type": "bytes32"
        }
      ],
      "stateMutability": "view",
      "type": "function"
    },
    {
      "inputs": [],
      "name": "VETERAN",
      "outputs": [
        {
          "internalType": "bytes32",
          "name": "",
          "type": "bytes32"
        }
      ],
      "stateMutability": "view",
      "type": "function"
    },
    {
      "inputs": [
        {
          "internalType": "address",
          "name": "",
          "type": "address"
        },
        {
          "internalType": "bytes32",
          "name": "",
          "type": "bytes32"
        }
      ],
      "name": "achievements",
      "outputs": [
        {
          "internalType": "bool",
          "name": "",
          "type": "bool"
        }
      ],
      "stateMutability": "view",
      "type": "function"
    },
    {
      "inputs": [
        {
          "internalType": "address",
          "name": "_oracle",
          "type": "address"
        }
      ],
      "name": "addOracle",
      "outputs": [],
      "stateMutability": "nonpayable",
      "type": "function"
    },
    {
      "inputs": [
        {
          "internalType": "address",
          "name": "",
          "type": "address"
        }
      ],
      "name": "agents",
      "outputs": [
        {
          "internalType": "address",
          "name": "wallet",
          "type": "address"
        },
        {
          "internalType": "string",
          "name": "moltbookId",
          "type": "string"
        },
        {
          "internalType": "uint256",
          "name": "eloRating",
          "type": "uint256"
        },
        {
          "internalType": "uint256",
          "name": "totalMatches",
          "type": "uint256"
        },
        {
          "internalType": "uint256",
          "name": "wins",
          "type": "uint256"
        },
        {
          "internalType": "uint256",
          "name": "losses",
          "type": "uint256"
        },
        {
          "internalType": "uint256",
          "name": "draws",
          "type": "uint256"
        },
        {
          "internalType": "uint256",
          "name": "totalWagered",
          "type": "uint256"
        },
        {
          "internalType": "uint256",
          "name": "totalWinnings",
          "type": "uint256"
        },
        {
          "internalType": "uint256",
          "name": "registeredAt",
          "type": "uint256"
        },
        {
          "internalType": "bool",
          "name": "active",
          "type": "bool"
        }
      ],
      "stateMutability": "view",
      "type": "function"
    },
    {
      "inputs": [
        {
          "internalType": "uint256",
          "name": "",
          "type": "uint256"
        }
      ],
      "name": "allAgents",
      "outputs": [
        {
          "internalType": "address",
          "name": "",
          "type": "address"
        }
      ],
      "stateMutability": "view",
      "type": "function"
    },
    {
      "inputs": [
        {
          "internalType": "address",
          "name": "",
          "type": "address"
        }
      ],
      "name": "authorizedOracles",
      "outputs": [
        {
          "internalType": "bool",
          "name": "",
          "type": "bool"
        }
      ],
      "stateMutability": "view",
      "type": "function"
    },
    {
      "inputs": [
        {
          "internalType": "address",
          "name": "",
          "type": "address"
        }
      ],
      "name": "currentWinStreak",
      "outputs": [
        {
          "internalType": "uint256",
          "name": "",
          "type": "uint256"
        }
      ],
      "stateMutability": "view",
      "type": "function"
    },
    {
      "inputs": [
        {
          "internalType": "address",
          "name": "_agent",
          "type": "address"
        }
      ],
      "name": "deactivateAgent",
      "outputs": [],
      "stateMutability": "nonpayable",
      "type": "function"
    },
    {
      "inputs": [
        {
          "internalType": "address",
          "name": "",
          "type": "address"
        },
        {
          "internalType": "bytes32",
          "name": "",
          "type": "bytes32"
        }
      ],
      "name": "gameStats",
      "outputs": [
        {
          "internalType": "uint256",
          "name": "matches",
          "type": "uint256"
        },
        {
          "internalType": "uint256",
          "name": "wins",
          "type": "uint256"
        }
      ],
      "stateMutability": "view",
      "type": "function"
    },
    {
      "inputs": [
        {
          "internalType": "address",
          "name": "_wallet",
          "type": "address"
        }
      ],
      "name": "getAgent",
      "outputs": [
        {
          "components": [
            {
              "internalType": "address",
              "name": "wallet",
              "type": "address"
            },
            {
              "internalType": "string",
              "name": "moltbookId",
              "type": "string"
            },
            {
              "internalType": "uint256",
              "name": "eloRating",
              "type": "uint256"
            },
            {
              "internalType": "uint256",
              "name": "totalMatches",
              "type": "uint256"
            },
            {
              "internalType": "uint256",
              "name": "wins",
              "type": "uint256"
            },
            {
              "internalType": "uint256",
              "name": "losses",
              "type": "uint256"
            },
            {
              "internalType": "uint256",
              "name": "draws",
              "type": "uint256"
            },
            {
              "internalType": "uint256",
              "name": "totalWagered",
              "type": "uint256"
            },
            {
              "internalType": "uint256",
              "name": "totalWinnings",
              "type": "uint256"
            },
            {
              "internalType": "uint256",
              "name": "registeredAt",
              "type": "uint256"
            },
            {
              "internalType": "bool",
              "name": "active",
              "type": "bool"
            }
          ],
          "internalType": "struct AgentRegistry.Agent",
          "name": "",
          "type": "tuple"
        }
      ],
      "stateMutability": "view",
      "type": "function"
    },
    {
      "inputs": [],
      "name": "getAgentCount",
      "outputs": [
        {
          "internalType": "uint256",
          "name": "",
          "type": "uint256"
        }
      ],
      "stateMutability": "view",
      "type": "function"
    },
    {
      "inputs": [
        {
          "internalType": "address",
          "name": "_agent",
          "type": "address"
        },
        {
          "internalType": "bytes32",
          "name": "_gameType",
          "type": "bytes32"
        }
      ],
      "name": "getGameStats",
      "outputs": [
        {
          "components": [
            {
              "internalType": "uint256",
              "name": "matches",
              "type": "uint256"
            },
            {
              "internalType": "uint256",
              "name": "wins",
              "type": "uint256"
            }
          ],
          "internalType": "struct AgentRegistry.GameTypeStats",
          "name": "",
          "type": "tuple"
        }
      ],
      "stateMutability": "view",
      "type": "function"
    },
    {
      "inputs": [
        {
          "internalType": "uint256",
          "name": "_count",
          "type": "uint256"
        }
      ],
      "name": "getLeaderboard",
      "outputs": [
        {
          "internalType": "address[]",
          "name": "",
          "type": "address[]"
        }
      ],
      "stateMutability": "view",
      "type": "function"
    },
    {
      "inputs": [
        {
          "internalType": "address",
          "name": "_agent",
          "type": "address"
        },
        {
          "internalType": "bytes32",
          "name": "_achievement",
          "type": "bytes32"
        }
      ],
      "name": "hasAchievement",
      "outputs": [
        {
          "internalType": "bool",
          "name": "",
          "type": "bool"
        }
      ],
      "stateMutability": "view",
      "type": "function"
    },
    {
      "inputs": [],
      "name": "owner",
      "outputs": [
        {
          "internalType": "address",
          "name": "",
          "type": "address"
        }
      ],
      "stateMutability": "view",
      "type": "function"
    },
    {
      "inputs": [
        {
          "internalType": "address",
          "name": "_agent",
          "type": "address"
        }
      ],
      "name": "reactivateAgent",
      "outputs": [],
      "stateMutability": "nonpayable",
      "type": "function"
    },
    {
      "inputs": [
        {
          "internalType": "address",
          "name": "_agent",
          "type": "address"
        },
        {
          "internalType": "bool",
          "name": "_won",
          "type": "bool"
        },
        {
          "internalType": "bool",
          "name": "_draw",
          "type": "bool"
        },
        {
          "internalType": "uint256",
          "name": "_wagerAmount",
          "type": "uint256"
        },
        {
          "internalType": "uint256",
          "name": "_winnings",
          "type": "uint256"
        },
        {
          "internalType": "bytes32",
          "name": "_gameType",
          "type": "bytes32"
        }
      ],
      "name": "recordMatch",
      "outputs": [],
      "stateMutability": "nonpayable",
      "type": "function"
    },
    {
      "inputs": [
        {
          "internalType": "string",
          "name": "_moltbookId",
          "type": "string"
        }
      ],
      "name": "registerAgent",
      "outputs": [],
      "stateMutability": "nonpayable",
      "type": "function"
    },
    {
      "inputs": [
        {
          "internalType": "address",
          "name": "_oracle",
          "type": "address"
        }
      ],
      "name": "removeOracle",
      "outputs": [],
      "stateMutability": "nonpayable",
      "type": "function"
    },
    {
      "inputs": [],
      "name": "renounceOwnership",
      "outputs": [],
      "stateMutability": "nonpayable",
      "type": "function"
    },
    {
      "inputs": [
        {
          "internalType": "address",
          "name": "newOwner",
          "type": "address"
        }
      ],
      "name": "transferOwnership",
      "outputs": [],
      "stateMutability": "nonpayable",
      "type": "function"
    },
    {
      "inputs": [
        {
          "internalType": "address",
          "name": "_agent1",
          "type": "address"
        },
        {
          "internalType": "address",
          "name": "_agent2",
          "type": "address"
        },
        {
          "internalType": "bool",
          "name": "_agent1Won",
          "type": "bool"
        },
        {
          "internalType": "bool",
          "name": "_draw",
          "type": "bool"
        }
      ],
      "name": "updateElo",
      "outputs": [],
      "stateMutability": "nonpayable",
      "type": "function"
    }
  ],
  "bytecode": "0x608060405234801561000f575f80fd5b50338061003557604051631e4fbdf760e01b81525f600482015260240160405180910390fd5b61003e81610044565b50610093565b5f80546001600160a01b038381166001600160a01b0319831681178455604051919092169283917f8be0079c531659141344cd1fd0a4f28419497f9722a3daafe3b4186f6b6457e09190a35050565b612193806100a05f395ff3fe608060405234801561000f575f80fd5b50600436106101dc575f3560e01c806378bf3f8511610109578063d526082f1161009e578063fb12f2a11161006e578063fb12f2a114610530578063fb3551ff14610543578063fd66091e14610563578063fdc85fc41461058d575f80fd5b8063d526082f146104ee578063df5dd1a5146104f7578063e0bb12f71461050a578063f2fde38b1461051d575f80fd5b8063a340efb5116100d9578063a340efb51461046d578063a34b46fe14610494578063b0a0a927146104b4578063b73705e4146104c7575f80fd5b806378bf3f851461040e5780637ea9aa0e146104225780638da5cb5b1461044157806391cab63e14610465575f80fd5b806346c7d2121161017f57806369efbff21161014f57806369efbff2146103445780636e2f1b131461038a578063715018a6146103fe57806377519b7314610406575f80fd5b806346c7d212146102bb57806361c992a3146102e2578063648d64771461030457806364c8179414610331575f80fd5b80632f781ffb116101ba5780632f781ffb14610230578063303f5f5114610265578063343037bd1461028b578063356174d2146102b2575f80fd5b8063050a6c42146101e05780630d05108f146102085780632d2a95851461021d575b5f80fd5b6101f36101ee366004611ad0565b6105a0565b60405190151581526020015b60405180910390f35b61021b610216366004611b07565b6105cd565b005b61021b61022b366004611b62565b610851565b6102577f99339e56b1bd8cc96884f4f8debb5b812e9ef092eb5427d017e605fff91d557381565b6040519081526020016101ff565b6102577ef987efeff9af1e02d101195f61071f9af273575b009447e5ddd60472ef85b281565b6102577f259f2fb8a850a76eef3928b99c6dc21e28d4acb81721f23bb33ba04102665ce281565b6102576103e881565b6102577fa8be3671501656574ebb32dd43ae4436c153e08de9e848817f8d5a720858275581565b6101f36102f0366004611bce565b60056020525f908152604090205460ff1681565b6101f3610312366004611ad0565b600360209081525f928352604080842090915290825290205460ff1681565b61021b61033f366004611bce565b610a8d565b610375610352366004611ad0565b600260209081525f92835260408084209091529082529020805460019091015482565b604080519283526020830191909152016101ff565b6103e3610398366004611ad0565b6040805180820182525f80825260209182018190526001600160a01b039490941684526002815281842092845291825291829020825180840190935280548352600101549082015290565b604080518251815260209283015192810192909252016101ff565b61021b610abe565b610257602081565b6102575f8051602061211e83398151915281565b610257610430366004611bce565b60046020525f908152604090205481565b5f546001600160a01b03165b6040516001600160a01b0390911681526020016101ff565b600654610257565b6102577fd5909b19a05b5464b24069cc8a4c0f088ce5c0075bd4be4994227cd975d43d2481565b6104a76104a2366004611bee565b610ad1565b6040516101ff9190611c05565b61021b6104c2366004611bce565b610db1565b6102577f69e8b0d306d040057128491d02ea9f5e71f89bc4aa895d0df3a33cf0bc6fe9a681565b6102576105dc81565b61021b610505366004611bce565b610ddc565b61044d610518366004611bee565b610e84565b61021b61052b366004611bce565b610eac565b61021b61053e366004611c51565b610ee9565b610556610551366004611bce565b61128c565b6040516101ff9190611ce5565b610576610571366004611bce565b611414565b6040516101ff9b9a99989796959493929190611d8f565b61021b61059b366004611bce565b6114ff565b6001600160a01b0382165f90815260036020908152604080832084845290915290205460ff165b92915050565b335f9081526005602052604090205460ff166106045760405162461bcd60e51b81526004016105fb90611dfd565b60405180910390fd5b6001600160a01b0386165f908152600160205260409020600a015460ff1661066e5760405162461bcd60e51b815260206004820152601f60248201527f4167656e7452656769737472793a204167656e74206e6f74206163746976650060448201526064016105fb565b6001600160a01b0386165f908152600160205260408120600381018054919261069683611e55565b919050555083816007015f8282546106ae9190611e6d565b909155505084156106ec57600681018054905f6106ca83611e55565b90915550506001600160a01b0387165f908152600460205260408120556107b2565b851561078357600481018054905f61070383611e55565b919050555082816008015f82825461071b9190611e6d565b90915550506001600160a01b0387165f90815260046020526040812080549161074383611e55565b90915550506001600160a01b0387165f908152600260209081526040808320858452909152812060010180549161077983611e55565b91905055506107b2565b600581018054905f61079483611e55565b90915550506001600160a01b0387165f908152600460205260408120555b6001600160a01b0387165f90815260026020908152604080832085845290915281208054916107e083611e55565b91905055506107ee8761154f565b600281015460048201546005830154604080519384526020840192909252908201526001600160a01b038816907f997f24cf4975d3212acc0b9725adbd096842424cf775f6f4e79752c4a22c06ff9060600160405180910390a250505050505050565b335f908152600160205260409020546001600160a01b0316156108c05760405162461bcd60e51b815260206004820152602160248201527f4167656e7452656769737472793a20416c7265616479207265676973746572656044820152601960fa1b60648201526084016105fb565b604051806101600160405280336001600160a01b0316815260200183838080601f0160208091040260200160405190810160405280939291908181526020018383808284375f92018290525093855250506105dc6020808501919091526040808501849052606085018490526080850184905260a0850184905260c0850184905260e08501849052426101008601526001610120909501859052338452848252909220845181546001600160a01b0319166001600160a01b03909116178155918401519192830191610993915082611f1a565b506040828101516002830155606083015160038301556080830151600483015560a0830151600583015560c083015160068084019190915560e084015160078401556101008401516008840155610120840151600984015561014090930151600a909201805460ff19169215159290921790915581546001810183555f929092527ff652222313e28459528d920b65115c16c04f3efc82aaedc97be59f3f377c0d3f9091018054336001600160a01b0319909116811790915590517f023c5efe572c42192271951adb0e77f97d7fc84bc761d026189ac0861734682490610a8190859085906105dc90611fd6565b60405180910390a25050565b610a95611a3a565b6001600160a01b03165f908152600160208190526040909120600a01805460ff19169091179055565b610ac6611a3a565b610acf5f611a66565b565b6006546060905f908311610ae55782610ae9565b6006545b90505f8167ffffffffffffffff811115610b0557610b05611e80565b604051908082528060200260200182016040528015610b2e578160200160208202803683370190505b506006549091505f9067ffffffffffffffff811115610b4f57610b4f611e80565b604051908082528060200260200182016040528015610b78578160200160208202803683370190505b5090505f5b600654811015610bf15760068181548110610b9a57610b9a61200d565b905f5260205f20015f9054906101000a90046001600160a01b0316828281518110610bc757610bc761200d565b6001600160a01b039092166020928302919091019091015280610be981611e55565b915050610b7d565b505f5b83811015610da7575f81805b8451811015610ca8578260015f878481518110610c1f57610c1f61200d565b60200260200101516001600160a01b03166001600160a01b031681526020019081526020015f20600201541115610c965760015f868381518110610c6557610c6561200d565b60200260200101516001600160a01b03166001600160a01b031681526020019081526020015f206002015492508091505b80610ca081611e55565b915050610c00565b505f848481518110610cbc57610cbc61200d565b60200260200101519050848281518110610cd857610cd861200d565b6020026020010151858581518110610cf257610cf261200d565b60200260200101906001600160a01b031690816001600160a01b03168152505080858381518110610d2557610d2561200d565b60200260200101906001600160a01b031690816001600160a01b031681525050848481518110610d5757610d5761200d565b6020026020010151868581518110610d7157610d7161200d565b60200260200101906001600160a01b031690816001600160a01b0316815250505050508080610d9f90611e55565b915050610bf4565b5090949350505050565b610db9611a3a565b6001600160a01b03165f908152600160205260409020600a01805460ff19169055565b610de4611a3a565b6001600160a01b038116610e3a5760405162461bcd60e51b815260206004820152601d60248201527f4167656e7452656769737472793a20496e76616c6964206f7261636c6500000060448201526064016105fb565b6001600160a01b0381165f81815260056020526040808220805460ff19166001179055517e47706786c922d17b39285dc59d696bafea72c0b003d3841ae1202076f4c2e49190a250565b60068181548110610e93575f80fd5b5f918252602090912001546001600160a01b0316905081565b610eb4611a3a565b6001600160a01b038116610edd57604051631e4fbdf760e01b81525f60048201526024016105fb565b610ee681611a66565b50565b335f9081526005602052604090205460ff16610f175760405162461bcd60e51b81526004016105fb90611dfd565b6001600160a01b038085165f9081526001602052604080822092861682529020600a82015460ff168015610f4f5750600a81015460ff165b610fa75760405162461bcd60e51b8152602060048201526024808201527f4167656e7452656769737472793a204167656e7473206d7573742062652061636044820152637469766560e01b60648201526084016105fb565b600280830154908201545f610fbc8383612021565b90505f805f8313156110015782610fd460648261205b565b610fdf906001611e6d565b610feb906103e861205b565b9250610ff9836103e861206e565b915050611041565b5f61100b84612081565b905061101860648261205b565b611023906001611e6d565b61102f906103e861205b565b915061103d826103e861206e565b9250505b5f80891561106c5761105660026103e861205b565b915061106560026103e861205b565b90506111d5565b8a1561112657506103e890505f611084876064611e6d565b861180156110c257506001600160a01b038d165f9081526003602090815260408083205f8051602061211e833981519152845290915290205460ff16155b15611121576001600160a01b038d165f8181526003602090815260408083205f8051602061211e83398151915280855290835292819020805460ff19166001179055519182525f8051602061213e833981519152910160405180910390a25b6111d5565b505f90506103e8611138866064611e6d565b8711801561117657506001600160a01b038c165f9081526003602090815260408083205f8051602061211e833981519152845290915290205460ff16155b156111d5576001600160a01b038c165f8181526003602090815260408083205f8051602061211e83398151915280855290835292819020805460ff19166001179055519182525f8051602061213e833981519152910160405180910390a25b5f6103e86111e38685612021565b6111ee90602061209b565b6111f891906120ca565b90505f6103e86112088685612021565b61121390602061209b565b61121d91906120ca565b9050606461122b838b6120f6565b13156112455761123b828a6120f6565b60028c015561124d565b606460028c01555b6064611259828a6120f6565b13156112735761126981896120f6565b60028b015561127b565b606460028b01555b505050505050505050505050505050565b6112ea6040518061016001604052805f6001600160a01b03168152602001606081526020015f81526020015f81526020015f81526020015f81526020015f81526020015f81526020015f81526020015f81526020015f151581525090565b6001600160a01b038083165f90815260016020818152604092839020835161016081019094528054909416835290830180549293929184019161132c90611e94565b80601f016020809104026020016040519081016040528092919081815260200182805461135890611e94565b80156113a35780601f1061137a576101008083540402835291602001916113a3565b820191905f5260205f20905b81548152906001019060200180831161138657829003601f168201915b505050918352505060028201546020820152600382015460408201526004820154606082015260058201546080820152600682015460a0820152600782015460c0820152600882015460e08201526009820154610100820152600a9091015460ff1615156101209091015292915050565b600160208190525f9182526040909120805491810180546001600160a01b039093169261144090611e94565b80601f016020809104026020016040519081016040528092919081815260200182805461146c90611e94565b80156114b75780601f1061148e576101008083540402835291602001916114b7565b820191905f5260205f20905b81548152906001019060200180831161149a57829003601f168201915b50505060028401546003850154600486015460058701546006880154600789015460088a015460098b0154600a909b0154999a96999598509396509194909391929160ff168b565b611507611a3a565b6001600160a01b0381165f81815260056020526040808220805460ff19169055517f9c8e7d83025bef8a04c664b2f753f64b8814bdb7e27291d7e50935f18cc3c7129190a250565b6001600160a01b0381165f908152600160208190526040909120600481015490911480156115c057506001600160a01b0382165f9081526003602090815260408083207fd5909b19a05b5464b24069cc8a4c0f088ce5c0075bd4be4994227cd975d43d24845290915290205460ff16155b15611632576001600160a01b0382165f8181526003602090815260408083207fd5909b19a05b5464b24069cc8a4c0f088ce5c0075bd4be4994227cd975d43d2480855290835292819020805460ff19166001179055519182525f8051602061213e833981519152910160405180910390a25b8060040154600a14801561168957506001600160a01b0382165f9081526003602090815260408083207f259f2fb8a850a76eef3928b99c6dc21e28d4acb81721f23bb33ba04102665ce2845290915290205460ff16155b156116fb576001600160a01b0382165f8181526003602090815260408083207f259f2fb8a850a76eef3928b99c6dc21e28d4acb81721f23bb33ba04102665ce280855290835292819020805460ff19166001179055519182525f8051602061213e833981519152910160405180910390a25b8060040154603214801561175257506001600160a01b0382165f9081526003602090815260408083207f99339e56b1bd8cc96884f4f8debb5b812e9ef092eb5427d017e605fff91d5573845290915290205460ff16155b156117c4576001600160a01b0382165f8181526003602090815260408083207f99339e56b1bd8cc96884f4f8debb5b812e9ef092eb5427d017e605fff91d557380855290835292819020805460ff19166001179055519182525f8051602061213e833981519152910160405180910390a25b8060040154606414801561181a57506001600160a01b0382165f9081526003602090815260408083207ef987efeff9af1e02d101195f61071f9af273575b009447e5ddd60472ef85b2845290915290205460ff16155b1561188b576001600160a01b0382165f8181526003602090815260408083207ef987efeff9af1e02d101195f61071f9af273575b009447e5ddd60472ef85b280855290835292819020805460ff19166001179055519182525f8051602061213e833981519152910160405180910390a25b68056bc75e2d631000008160070154101580156118eb57506001600160a01b0382165f9081526003602090815260408083207f69e8b0d306d040057128491d02ea9f5e71f89bc4aa895d0df3a33cf0bc6fe9a6845290915290205460ff16155b1561195d576001600160a01b0382165f8181526003602090815260408083207f69e8b0d306d040057128491d02ea9f5e71f89bc4aa895d0df3a33cf0bc6fe9a680855290835292819020805460ff19166001179055519182525f8051602061213e833981519152910160405180910390a25b6001600160a01b0382165f908152600460205260409020546005118015906119c857506001600160a01b0382165f9081526003602090815260408083207fa8be3671501656574ebb32dd43ae4436c153e08de9e848817f8d5a7208582755845290915290205460ff16155b15611a36576001600160a01b0382165f8181526003602090815260408083207fa8be3671501656574ebb32dd43ae4436c153e08de9e848817f8d5a720858275580855290835292819020805460ff19166001179055519182525f8051602061213e8339815191529101610a81565b5050565b5f546001600160a01b03163314610acf5760405163118cdaa760e01b81523360048201526024016105fb565b5f80546001600160a01b038381166001600160a01b0319831681178455604051919092169283917f8be0079c531659141344cd1fd0a4f28419497f9722a3daafe3b4186f6b6457e09190a35050565b80356001600160a01b0381168114611acb575f80fd5b919050565b5f8060408385031215611ae1575f80fd5b611aea83611ab5565b946020939093013593505050565b80358015158114611acb575f80fd5b5f805f805f8060c08789031215611b1c575f80fd5b611b2587611ab5565b9550611b3360208801611af8565b9450611b4160408801611af8565b9350606087013592506080870135915060a087013590509295509295509295565b5f8060208385031215611b73575f80fd5b823567ffffffffffffffff80821115611b8a575f80fd5b818501915085601f830112611b9d575f80fd5b813581811115611bab575f80fd5b866020828501011115611bbc575f80fd5b60209290920196919550909350505050565b5f60208284031215611bde575f80fd5b611be782611ab5565b9392505050565b5f60208284031215611bfe575f80fd5b5035919050565b602080825282518282018190525f9190848201906040850190845b81811015611c455783516001600160a01b031683529284019291840191600101611c20565b50909695505050505050565b5f805f8060808587031215611c64575f80fd5b611c6d85611ab5565b9350611c7b60208601611ab5565b9250611c8960408601611af8565b9150611c9760608601611af8565b905092959194509250565b5f81518084525f5b81811015611cc657602081850181015186830182015201611caa565b505f602082860101526020601f19601f83011685010191505092915050565b60208152611cff6020820183516001600160a01b03169052565b5f6020830151610160806040850152611d1c610180850183611ca2565b91506040850151606085015260608501516080850152608085015160a085015260a085015160c085015260c085015160e085015260e0850151610100818187015280870151915050610120818187015280870151915050610140818187015280870151915050610da78286018215159052565b6001600160a01b038c168152610160602082018190525f90611db38382018e611ca2565b604084019c909c5250506060810198909852608088019690965260a087019490945260c086019290925260e085015261010084015261012083015215156101409091015292915050565b60208082526024908201527f4167656e7452656769737472793a204e6f7420617574686f72697a6564206f7260408201526361636c6560e01b606082015260800190565b634e487b7160e01b5f52601160045260245ffd5b5f60018201611e6657611e66611e41565b5060010190565b808201808211156105c7576105c7611e41565b634e487b7160e01b5f52604160045260245ffd5b600181811c90821680611ea857607f821691505b602082108103611ec657634e487b7160e01b5f52602260045260245ffd5b50919050565b601f821115611f15575f81815260208120601f850160051c81016020861015611ef25750805b601f850160051c820191505b81811015611f1157828155600101611efe565b5050505b505050565b815167ffffffffffffffff811115611f3457611f34611e80565b611f4881611f428454611e94565b84611ecc565b602080601f831160018114611f7b575f8415611f645750858301515b5f19600386901b1c1916600185901b178555611f11565b5f85815260208120601f198616915b82811015611fa957888601518255948401946001909101908401611f8a565b5085821015611fc657878501515f19600388901b60f8161c191681555b5050505050600190811b01905550565b60408152826040820152828460608301375f606084830101525f6060601f19601f8601168301019050826020830152949350505050565b634e487b7160e01b5f52603260045260245ffd5b8181035f83128015838313168383128216171561204057612040611e41565b5092915050565b634e487b7160e01b5f52601260045260245ffd5b5f8261206957612069612047565b500490565b818103818111156105c7576105c7611e41565b5f600160ff1b820161209557612095611e41565b505f0390565b8082025f8212600160ff1b841416156120b6576120b6611e41565b81810583148215176105c7576105c7611e41565b5f826120d8576120d8612047565b600160ff1b82145f19841416156120f1576120f1611e41565b500590565b8082018281125f83128015821682158216171561211557612115611e41565b50509291505056fe3369f0b7d40634109fe69d5e55c400c3d1f9142f793e493dab09fb9863616aa68b1ad8f42d596da172aaf2517323750dd2bbc65505ec8c68ab255338205da9dea26469706673582212202193d0ea4d5bd8655caa7559c95ab0e3c84f386a6dc92ce2064bcea55ad1bf3764736f6c63430008140033",
  "linkReferences": {},
  "deployedLinkReferences": {},
  "immutableReferences": {},
  "inputSourceName": "project/contracts/AgentRegistry.sol",
  "buildInfoId": "solc-0_8_20-5cdebf895fd15ec4164424104309848b21b32e17"
}