{
  "_format": "hh3-artifact-1",
  "contractName": "StratmosToken",
  "sourceName": "contracts/StratmosToken.sol",
  "abi": [
    {
      "inputs": [
        {
          "internalType": "string",
          "name": "_name",
          "type": "string"
        },
        {
          "internalType": "string",
          "name": "_symbol",
          "type": "string"
        },
        {
          "internalType": "uint256",
          "name": "_initialSupply",
          "type": "uint256"
        },
        {
          "internalType": "address",
          "name": "_treasury",
          "type": "address"
        }
      ],
      "stateMutability": "nonpayable",
      "type": "constructor"
    },
    {
      "inputs": [
        {
          "internalType": "address",
          "name": "spender",
          "type": "address"
        },
        {
          "internalType": "uint256",
          "name": "allowance",
          "type": "uint256"
        },
        {
          "internalType": "uint256",
          "name": "needed",
          "type": "uint256"
        }
      ],
      "name": "ERC20InsufficientAllowance",
      "type": "error"
    },
    {
      "inputs": [
        {
          "internalType": "address",
          "name": "sender",
          "type": "address"
        },
        {
          "internalType": "uint256",
          "name": "balance",
          "type": "uint256"
        },
        {
          "internalType": "uint256",
          "name": "needed",
          "type": "uint256"
        }
      ],
      "name": "ERC20InsufficientBalance",
      "type": "error"
    },
    {
      "inputs": [
        {
          "internalType": "address",
          "name": "approver",
          "type": "address"
        }
      ],
      "name": "ERC20InvalidApprover",
      "type": "error"
    },
    {
      "inputs": [
        {
          "internalType": "address",
          "name": "receiver",
          "type": "address"
        }
      ],
      "name": "ERC20InvalidReceiver",
      "type": "error"
    },
    {
      "inputs": [
        {
          "internalType": "address",
          "name": "sender",
          "type": "address"
        }
      ],
      "name": "ERC20InvalidSender",
      "type": "error"
    },
    {
      "inputs": [
        {
          "internalType": "address",
          "name": "spender",
          "type": "address"
        }
      ],
      "name": "ERC20InvalidSpender",
      "type": "error"
    },
    {
      "inputs": [
        {
          "internalType": "address",
          "name": "owner",
          "type": "address"
        }
      ],
      "name": "OwnableInvalidOwner",
      "type": "error"
    },
    {
      "inputs": [
        {
          "internalType": "address",
          "name": "account",
          "type": "address"
        }
      ],
      "name": "OwnableUnauthorizedAccount",
      "type": "error"
    },
    {
      "inputs": [],
      "name": "ReentrancyGuardReentrantCall",
      "type": "error"
    },
    {
      "anonymous": false,
      "inputs": [
        {
          "indexed": true,
          "internalType": "address",
          "name": "owner",
          "type": "address"
        },
        {
          "indexed": true,
          "internalType": "address",
          "name": "spender",
          "type": "address"
        },
        {
          "indexed": false,
          "internalType": "uint256",
          "name": "value",
          "type": "uint256"
        }
      ],
      "name": "Approval",
      "type": "event"
    },
    {
      "anonymous": false,
      "inputs": [
        {
          "indexed": true,
          "internalType": "address",
          "name": "depositor",
          "type": "address"
        }
      ],
      "name": "DepositorAdded",
      "type": "event"
    },
    {
      "anonymous": false,
      "inputs": [
        {
          "indexed": true,
          "internalType": "address",
          "name": "depositor",
          "type": "address"
        }
      ],
      "name": "DepositorRemoved",
      "type": "event"
    },
    {
      "anonymous": false,
      "inputs": [
        {
          "indexed": true,
          "internalType": "address",
          "name": "previousOwner",
          "type": "address"
        },
        {
          "indexed": true,
          "internalType": "address",
          "name": "newOwner",
          "type": "address"
        }
      ],
      "name": "OwnershipTransferred",
      "type": "event"
    },
    {
      "anonymous": false,
      "inputs": [
        {
          "indexed": true,
          "internalType": "address",
          "name": "from",
          "type": "address"
        },
        {
          "indexed": false,
          "internalType": "uint256",
          "name": "amount",
          "type": "uint256"
        }
      ],
      "name": "RevenueDeposited",
      "type": "event"
    },
    {
      "anonymous": false,
      "inputs": [
        {
          "indexed": true,
          "internalType": "address",
          "name": "user",
          "type": "address"
        },
        {
          "indexed": false,
          "internalType": "uint256",
          "name": "amount",
          "type": "uint256"
        }
      ],
      "name": "RewardsClaimed",
      "type": "event"
    },
    {
      "anonymous": false,
      "inputs": [
        {
          "indexed": true,
          "internalType": "address",
          "name": "user",
          "type": "address"
        },
        {
          "indexed": false,
          "internalType": "uint256",
          "name": "amount",
          "type": "uint256"
        }
      ],
      "name": "Staked",
      "type": "event"
    },
    {
      "anonymous": false,
      "inputs": [
        {
          "indexed": true,
          "internalType": "address",
          "name": "from",
          "type": "address"
        },
        {
          "indexed": true,
          "internalType": "address",
          "name": "to",
          "type": "address"
        },
        {
          "indexed": false,
          "internalType": "uint256",
          "name": "value",
          "type": "uint256"
        }
      ],
      "name": "Transfer",
      "type": "event"
    },
    {
      "anonymous": false,
      "inputs": [
        {
          "indexed": true,
          "internalType": "address",
          "name": "user",
          "type": "address"
        },
        {
          "indexed": false,
          "internalType": "uint256",
          "name": "amount",
          "type": "uint256"
        }
      ],
      "name": "Unstaked",
      "type": "event"
    },
    {
      "inputs": [],
      "name": "BPS_DENOMINATOR",
      "outputs": [
        {
          "internalType": "uint256",
          "name": "",
          "type": "uint256"
        }
      ],
      "stateMutability": "view",
      "type": "function"
    },
    {
      "inputs": [],
      "name": "MIN_STAKE_DURATION",
      "outputs": [
        {
          "internalType": "uint256",
          "name": "",
          "type": "uint256"
        }
      ],
      "stateMutability": "view",
      "type": "function"
    },
    {
      "inputs": [],
      "name": "STAKER_SHARE_BPS",
      "outputs": [
        {
          "internalType": "uint256",
          "name": "",
          "type": "uint256"
        }
      ],
      "stateMutability": "view",
      "type": "function"
    },
    {
      "inputs": [],
      "name": "accRewardsPerShare",
      "outputs": [
        {
          "internalType": "uint256",
          "name": "",
          "type": "uint256"
        }
      ],
      "stateMutability": "view",
      "type": "function"
    },
    {
      "inputs": [
        {
          "internalType": "address",
          "name": "_depositor",
          "type": "address"
        }
      ],
      "name": "addDepositor",
      "outputs": [],
      "stateMutability": "nonpayable",
      "type": "function"
    },
    {
      "inputs": [
        {
          "internalType": "address",
          "name": "owner",
          "type": "address"
        },
        {
          "internalType": "address",
          "name": "spender",
          "type": "address"
        }
      ],
      "name": "allowance",
      "outputs": [
        {
          "internalType": "uint256",
          "name": "",
          "type": "uint256"
        }
      ],
      "stateMutability": "view",
      "type": "function"
    },
    {
      "inputs": [
        {
          "internalType": "address",
          "name": "spender",
          "type": "address"
        },
        {
          "internalType": "uint256",
          "name": "value",
          "type": "uint256"
        }
      ],
      "name": "approve",
      "outputs": [
        {
          "internalType": "bool",
          "name": "",
          "type": "bool"
        }
      ],
      "stateMutability": "nonpayable",
      "type": "function"
    },
    {
      "inputs": [
        {
          "internalType": "address",
          "name": "account",
          "type": "address"
        }
      ],
      "name": "balanceOf",
      "outputs": [
        {
          "internalType": "uint256",
          "name": "",
          "type": "uint256"
        }
      ],
      "stateMutability": "view",
      "type": "function"
    },
    {
      "inputs": [
        {
          "internalType": "uint256",
          "name": "value",
          "type": "uint256"
        }
      ],
      "name": "burn",
      "outputs": [],
      "stateMutability": "nonpayable",
      "type": "function"
    },
    {
      "inputs": [
        {
          "internalType": "address",
          "name": "account",
          "type": "address"
        },
        {
          "internalType": "uint256",
          "name": "value",
          "type": "uint256"
        }
      ],
      "name": "burnFrom",
      "outputs": [],
      "stateMutability": "nonpayable",
      "type": "function"
    },
    {
      "inputs": [],
      "name": "claimRewards",
      "outputs": [],
      "stateMutability": "nonpayable",
      "type": "function"
    },
    {
      "inputs": [],
      "name": "decimals",
      "outputs": [
        {
          "internalType": "uint8",
          "name": "",
          "type": "uint8"
        }
      ],
      "stateMutability": "view",
      "type": "function"
    },
    {
      "inputs": [],
      "name": "depositRevenue",
      "outputs": [],
      "stateMutability": "payable",
      "type": "function"
    },
    {
      "inputs": [],
      "name": "getEstimatedAPY",
      "outputs": [
        {
          "internalType": "uint256",
          "name": "",
          "type": "uint256"
        }
      ],
      "stateMutability": "view",
      "type": "function"
    },
    {
      "inputs": [
        {
          "internalType": "address",
          "name": "_user",
          "type": "address"
        }
      ],
      "name": "getStakeInfo",
      "outputs": [
        {
          "internalType": "uint256",
          "name": "stakedAmount",
          "type": "uint256"
        },
        {
          "internalType": "uint256",
          "name": "pending",
          "type": "uint256"
        },
        {
          "internalType": "uint256",
          "name": "lastClaim",
          "type": "uint256"
        }
      ],
      "stateMutability": "view",
      "type": "function"
    },
    {
      "inputs": [
        {
          "internalType": "address",
          "name": "_to",
          "type": "address"
        },
        {
          "internalType": "uint256",
          "name": "_amount",
          "type": "uint256"
        }
      ],
      "name": "mint",
      "outputs": [],
      "stateMutability": "nonpayable",
      "type": "function"
    },
    {
      "inputs": [],
      "name": "name",
      "outputs": [
        {
          "internalType": "string",
          "name": "",
          "type": "string"
        }
      ],
      "stateMutability": "view",
      "type": "function"
    },
    {
      "inputs": [],
      "name": "owner",
      "outputs": [
        {
          "internalType": "address",
          "name": "",
          "type": "address"
        }
      ],
      "stateMutability": "view",
      "type": "function"
    },
    {
      "inputs": [
        {
          "internalType": "address",
          "name": "_user",
          "type": "address"
        }
      ],
      "name": "pendingRewards",
      "outputs": [
        {
          "internalType": "uint256",
          "name": "",
          "type": "uint256"
        }
      ],
      "stateMutability": "view",
      "type": "function"
    },
    {
      "inputs": [
        {
          "internalType": "address",
          "name": "_depositor",
          "type": "address"
        }
      ],
      "name": "removeDepositor",
      "outputs": [],
      "stateMutability": "nonpayable",
      "type": "function"
    },
    {
      "inputs": [],
      "name": "renounceOwnership",
      "outputs": [],
      "stateMutability": "nonpayable",
      "type": "function"
    },
    {
      "inputs": [
        {
          "internalType": "address",
          "name": "",
          "type": "address"
        }
      ],
      "name": "revenueDepositors",
      "outputs": [
        {
          "internalType": "bool",
          "name": "",
          "type": "bool"
        }
      ],
      "stateMutability": "view",
      "type": "function"
    },
    {
      "inputs": [
        {
          "internalType": "uint256",
          "name": "_amount",
          "type": "uint256"
        }
      ],
      "name": "stake",
      "outputs": [],
      "stateMutability": "nonpayable",
      "type": "function"
    },
    {
      "inputs": [
        {
          "internalType": "address",
          "name": "",
          "type": "address"
        }
      ],
      "name": "stakers",
      "outputs": [
        {
          "internalType": "uint256",
          "name": "stakedAmount",
          "type": "uint256"
        },
        {
          "internalType": "uint256",
          "name": "rewardsDebt",
          "type": "uint256"
        },
        {
          "internalType": "uint256",
          "name": "lastClaimTime",
          "type": "uint256"
        }
      ],
      "stateMutability": "view",
      "type": "function"
    },
    {
      "inputs": [],
      "name": "symbol",
      "outputs": [
        {
          "internalType": "string",
          "name": "",
          "type": "string"
        }
      ],
      "stateMutability": "view",
      "type": "function"
    },
    {
      "inputs": [],
      "name": "totalRewardsDistributed",
      "outputs": [
        {
          "internalType": "uint256",
          "name": "",
          "type": "uint256"
        }
      ],
      "stateMutability": "view",
      "type": "function"
    },
    {
      "inputs": [],
      "name": "totalStaked",
      "outputs": [
        {
          "internalType": "uint256",
          "name": "",
          "type": "uint256"
        }
      ],
      "stateMutability": "view",
      "type": "function"
    },
    {
      "inputs": [],
      "name": "totalSupply",
      "outputs": [
        {
          "internalType": "uint256",
          "name": "",
          "type": "uint256"
        }
      ],
      "stateMutability": "view",
      "type": "function"
    },
    {
      "inputs": [
        {
          "internalType": "address",
          "name": "to",
          "type": "address"
        },
        {
          "internalType": "uint256",
          "name": "value",
          "type": "uint256"
        }
      ],
      "name": "transfer",
      "outputs": [
        {
          "internalType": "bool",
          "name": "",
          "type": "bool"
        }
      ],
      "stateMutability": "nonpayable",
      "type": "function"
    },
    {
      "inputs": [
        {
          "internalType": "address",
          "name": "from",
          "type": "address"
        },
        {
          "internalType": "address",
          "name": "to",
          "type": "address"
        },
        {
          "internalType": "uint256",
          "name": "value",
          "type": "uint256"
        }
      ],
      "name": "transferFrom",
      "outputs": [
        {
          "internalType": "bool",
          "name": "",
          "type": "bool"
        }
      ],
      "stateMutability": "nonpayable",
      "type": "function"
    },
    {
      "inputs": [
        {
          "internalType": "address",
          "name": "newOwner",
          "type": "address"
        }
      ],
      "name": "transferOwnership",
      "outputs": [],
      "stateMutability": "nonpayable",
      "type": "function"
    },
    {
      "inputs": [
        {
          "internalType": "uint256",
          "name": "_amount",
          "type": "uint256"
        }
      ],
      "name": "unstake",
      "outputs": [],
      "stateMutability": "nonpayable",
      "type": "function"
    },
    {
      "inputs": [],
      "name": "withdrawExcessETH",
      "outputs": [],
      "stateMutability": "nonpayable",
      "type": "function"
    },
    {
      "stateMutability": "payable",
      "type": "receive"
    }
  ],
  "bytecode": "0x608060405234801562000010575f80fd5b5060405162001d5238038062001d52833981016040819052620000339162000326565b338484600362000044838262000441565b50600462000053828262000441565b5050506001600160a01b0381166200008557604051631e4fbdf760e01b81525f60048201526024015b60405180910390fd5b6200009081620000ac565b506001600655620000a28183620000fd565b505050506200052f565b600580546001600160a01b038381166001600160a01b0319831681179093556040519116919082907f8be0079c531659141344cd1fd0a4f28419497f9722a3daafe3b4186f6b6457e0905f90a35050565b6001600160a01b038216620001285760405163ec442f0560e01b81525f60048201526024016200007c565b620001355f838362000139565b5050565b6001600160a01b03831662000167578060025f8282546200015b919062000509565b90915550620001d99050565b6001600160a01b0383165f9081526020819052604090205481811015620001bb5760405163391434e360e21b81526001600160a01b038516600482015260248101829052604481018390526064016200007c565b6001600160a01b0384165f9081526020819052604090209082900390555b6001600160a01b038216620001f75760028054829003905562000215565b6001600160a01b0382165f9081526020819052604090208054820190555b816001600160a01b0316836001600160a01b03167fddf252ad1be2c89b69c2b068fc378daa952ba7f163c4a11628f55a4df523b3ef836040516200025b91815260200190565b60405180910390a3505050565b634e487b7160e01b5f52604160045260245ffd5b5f82601f8301126200028c575f80fd5b81516001600160401b0380821115620002a957620002a962000268565b604051601f8301601f19908116603f01168101908282118183101715620002d457620002d462000268565b81604052838152602092508683858801011115620002f0575f80fd5b5f91505b83821015620003135785820183015181830184015290820190620002f4565b5f93810190920192909252949350505050565b5f805f80608085870312156200033a575f80fd5b84516001600160401b038082111562000351575f80fd5b6200035f888389016200027c565b9550602087015191508082111562000375575f80fd5b5062000384878288016200027c565b60408701516060880151919550935090506001600160a01b0381168114620003aa575f80fd5b939692955090935050565b600181811c90821680620003ca57607f821691505b602082108103620003e957634e487b7160e01b5f52602260045260245ffd5b50919050565b601f8211156200043c575f81815260208120601f850160051c81016020861015620004175750805b601f850160051c820191505b81811015620004385782815560010162000423565b5050505b505050565b81516001600160401b038111156200045d576200045d62000268565b62000475816200046e8454620003b5565b84620003ef565b602080601f831160018114620004ab575f8415620004935750858301515b5f19600386901b1c1916600185901b17855562000438565b5f85815260208120601f198616915b82811015620004db57888601518255948401946001909101908401620004ba565b5085821015620004f957878501515f19600388901b60f8161c191681555b5050505050600190811b01905550565b808201808211156200052957634e487b7160e01b5f52601160045260245ffd5b92915050565b611815806200053d5f395ff3fe6080604052600436106101e9575f3560e01c80637cbaccd511610108578063a9059cbb1161009d578063e0c570ba1161006d578063e0c570ba14610633578063e1a4521814610649578063ee1725461461065e578063f2fde38b14610673578063fc8acba214610692575f80fd5b8063a9059cbb1461059d578063c3453153146105bc578063ccaad55d146105db578063dd62ed3e146105ef575f80fd5b80639168ae72116100d85780639168ae721461050157806395d89b41146105565780639cebf9c51461056a578063a694fc3a1461057e575f80fd5b80637cbaccd514610491578063817b1cd2146104a65780638b73e606146104bb5780638da5cb5b146104da575f80fd5b806340c10f191161017e5780635c69d3a61161014e5780635c69d3a61461041557806370a082311461042a578063715018a61461045e57806379cc679014610472575f80fd5b806340c10f19146103a157806342966c68146103c057806344e43cb8146103df5780635bbf6033146103e7575f80fd5b80632e17de78116101b95780632e17de7814610332578063313ce5671461035357806331d7a2621461036e578063372500ab1461038d575f80fd5b806306fdde031461029c578063095ea7b3146102c657806318160ddd146102f557806323b872dd14610313575f80fd5b366102985760085415610261575f612710610206610bb83461161c565b6102109190611633565b60085490915061022882670de0b6b3a764000061161c565b6102329190611633565b60095f8282546102429190611652565b9250508190555080600a5f82825461025a9190611652565b9091555050505b60405134815233907f7899add10f1a002ae3ee854045bbc90bfd5f3d27f73a21ccbf97e5aaed84d0b29060200160405180910390a2005b5f80fd5b3480156102a7575f80fd5b506102b06106b1565b6040516102bd9190611665565b60405180910390f35b3480156102d1575f80fd5b506102e56102e03660046116cb565b610741565b60405190151581526020016102bd565b348015610300575f80fd5b506002545b6040519081526020016102bd565b34801561031e575f80fd5b506102e561032d3660046116f3565b61075a565b34801561033d575f80fd5b5061035161034c36600461172c565b61077d565b005b34801561035e575f80fd5b50604051601281526020016102bd565b348015610379575f80fd5b50610305610388366004611743565b61095a565b348015610398575f80fd5b50610351610964565b3480156103ac575f80fd5b506103516103bb3660046116cb565b610a5a565b3480156103cb575f80fd5b506103516103da36600461172c565b610a70565b610351610a7a565b3480156103f2575f80fd5b506102e5610401366004611743565b600b6020525f908152604090205460ff1681565b348015610420575f80fd5b50610305610bb881565b348015610435575f80fd5b50610305610444366004611743565b6001600160a01b03165f9081526020819052604090205490565b348015610469575f80fd5b50610351610c02565b34801561047d575f80fd5b5061035161048c3660046116cb565b610c13565b34801561049c575f80fd5b5061030560095481565b3480156104b1575f80fd5b5061030560085481565b3480156104c6575f80fd5b506103516104d5366004611743565b610c28565b3480156104e5575f80fd5b506005546040516001600160a01b0390911681526020016102bd565b34801561050c575f80fd5b5061053b61051b366004611743565b60076020525f908152604090208054600182015460029092015490919083565b604080519384526020840192909252908201526060016102bd565b348015610561575f80fd5b506102b0610c78565b348015610575575f80fd5b50610351610c87565b348015610589575f80fd5b5061035161059836600461172c565b610dab565b3480156105a8575f80fd5b506102e56105b73660046116cb565b610f7d565b3480156105c7575f80fd5b5061053b6105d6366004611743565b610f8a565b3480156105e6575f80fd5b50610305610fc2565b3480156105fa575f80fd5b50610305610609366004611763565b6001600160a01b039182165f90815260016020908152604080832093909416825291909152205490565b34801561063e575f80fd5b506103056201518081565b348015610654575f80fd5b5061030561271081565b348015610669575f80fd5b50610305600a5481565b34801561067e575f80fd5b5061035161068d366004611743565b610fff565b34801561069d575f80fd5b506103516106ac366004611743565b611039565b6060600380546106c090611794565b80601f01602080910402602001604051908101604052809291908181526020018280546106ec90611794565b80156107375780601f1061070e57610100808354040283529160200191610737565b820191905f5260205f20905b81548152906001019060200180831161071a57829003601f168201915b5050505050905090565b5f3361074e8185856110e2565b60019150505b92915050565b5f336107678582856110f4565b610772858585611170565b506001949350505050565b6107856111cd565b335f90815260076020526040902080548211156107f35760405162461bcd60e51b815260206004820152602160248201527f53747261746d6f73546f6b656e3a20496e73756666696369656e74207374616b6044820152606560f81b60648201526084015b60405180910390fd5b6201518081600201546108069190611652565b4210156108615760405162461bcd60e51b815260206004820152602360248201527f53747261746d6f73546f6b656e3a205374616b65206c6f636b656420666f722060448201526206468d60eb1b60648201526084016107ea565b5f61086b336111f7565b905080156108b35761087d338261125d565b60405181815233907ffc30cddea38e2bf4d6ea7d3f9ed3b6ad7f176419f4963bd81318067a4aee73fe9060200160405180910390a25b82825f015f8282546108c591906117cc565b90915550506009548254670de0b6b3a7640000916108e29161161c565b6108ec9190611633565b82600101819055508260085f82825461090591906117cc565b909155506109169050303385611170565b60405183815233907f0f5bb82176feb1b5e747e28471aa92156a04d9f3ab9f45f28e2d704232b93f759060200160405180910390a250506109576001600655565b50565b5f610754826111f7565b61096c6111cd565b5f610976336111f7565b90505f81116109d25760405162461bcd60e51b815260206004820152602260248201527f53747261746d6f73546f6b656e3a204e6f207265776172647320746f20636c61604482015261696d60f01b60648201526084016107ea565b335f9081526007602052604090206009548154670de0b6b3a7640000916109f89161161c565b610a029190611633565b6001820155426002820155610a17338361125d565b60405182815233907ffc30cddea38e2bf4d6ea7d3f9ed3b6ad7f176419f4963bd81318067a4aee73fe9060200160405180910390a25050610a586001600655565b565b610a6261132a565b610a6c8282611357565b5050565b610957338261138b565b335f908152600b602052604090205460ff1680610aa157506005546001600160a01b031633145b610afd5760405162461bcd60e51b815260206004820152602760248201527f53747261746d6f73546f6b656e3a204e6f7420617574686f72697a65642064656044820152663837b9b4ba37b960c91b60648201526084016107ea565b5f3411610b585760405162461bcd60e51b8152602060048201526024808201527f53747261746d6f73546f6b656e3a204e6f20726576656e756520746f206465706044820152631bdcda5d60e21b60648201526084016107ea565b60085415610bcb575f612710610b70610bb83461161c565b610b7a9190611633565b600854909150610b9282670de0b6b3a764000061161c565b610b9c9190611633565b60095f828254610bac9190611652565b9250508190555080600a5f828254610bc49190611652565b9091555050505b60405134815233907f7899add10f1a002ae3ee854045bbc90bfd5f3d27f73a21ccbf97e5aaed84d0b29060200160405180910390a2565b610c0a61132a565b610a585f6113bf565b610c1e8233836110f4565b610a6c828261138b565b610c3061132a565b6001600160a01b0381165f818152600b6020526040808220805460ff19169055517fbc12c224e0d437ba41f0b1d746dea5cb82c6d3808b990d3780eacbd3adcad0eb9190a250565b6060600480546106c090611794565b610c8f61132a565b610c976111cd565b4780610cef5760405162461bcd60e51b815260206004820152602160248201527f53747261746d6f73546f6b656e3a204e6f2045544820746f20776974686472616044820152607760f81b60648201526084016107ea565b5f610d026005546001600160a01b031690565b6001600160a01b0316826040515f6040518083038185875af1925050503d805f8114610d49576040519150601f19603f3d011682016040523d82523d5f602084013e610d4e565b606091505b5050905080610d9f5760405162461bcd60e51b815260206004820181905260248201527f53747261746d6f73546f6b656e3a205769746864726177616c206661696c656460448201526064016107ea565b5050610a586001600655565b610db36111cd565b5f8111610e025760405162461bcd60e51b815260206004820152601d60248201527f53747261746d6f73546f6b656e3a2043616e6e6f74207374616b65203000000060448201526064016107ea565b335f90815260208190526040902054811115610e6c5760405162461bcd60e51b815260206004820152602360248201527f53747261746d6f73546f6b656e3a20496e73756666696369656e742062616c616044820152626e636560e81b60648201526084016107ea565b335f908152600760205260409020805415610ed5575f610e8b336111f7565b90508015610ed357610e9d338261125d565b60405181815233907ffc30cddea38e2bf4d6ea7d3f9ed3b6ad7f176419f4963bd81318067a4aee73fe9060200160405180910390a25b505b610ee0333084611170565b81815f015f828254610ef29190611652565b90915550506009548154670de0b6b3a764000091610f0f9161161c565b610f199190611633565b6001820155426002820155600880548391905f90610f38908490611652565b909155505060405182815233907f9e71bc8eea02a63969f509818f2dafb9254532904319f9dbda79b67bd34a5f3d9060200160405180910390a2506109576001600655565b5f3361074e818585611170565b6001600160a01b0381165f908152600760205260408120805482918291610fb0866111f7565b60029092015490969195509350915050565b5f6008545f03610fd157505f90565b600854612710600a54610fe4919061161c565b610ff09061016d61161c565b610ffa9190611633565b905090565b61100761132a565b6001600160a01b03811661103057604051631e4fbdf760e01b81525f60048201526024016107ea565b610957816113bf565b61104161132a565b6001600160a01b0381166110975760405162461bcd60e51b815260206004820181905260248201527f53747261746d6f73546f6b656e3a20496e76616c6964206465706f7369746f7260448201526064016107ea565b6001600160a01b0381165f818152600b6020526040808220805460ff19166001179055517f5eea62661ac9a33be3f9320ecd60878cd5e92025ffec0f2e9969d2448b497eda9190a250565b6110ef8383836001611410565b505050565b6001600160a01b038381165f908152600160209081526040808320938616835292905220545f1981101561116a578181101561115c57604051637dc7a0d960e11b81526001600160a01b038416600482015260248101829052604481018390526064016107ea565b61116a84848484035f611410565b50505050565b6001600160a01b03831661119957604051634b637e8f60e11b81525f60048201526024016107ea565b6001600160a01b0382166111c25760405163ec442f0560e01b81525f60048201526024016107ea565b6110ef8383836114e2565b6002600654036111f057604051633ee5aeb560e01b815260040160405180910390fd5b6002600655565b6001600160a01b0381165f9081526007602052604081208054820361121e57505f92915050565b5f670de0b6b3a7640000600954835f0154611239919061161c565b6112439190611633565b905081600101548161125591906117cc565b949350505050565b475f81831161126c578261126e565b815b9050801561116a575f846001600160a01b0316826040515f6040518083038185875af1925050503d805f81146112bf576040519150601f19603f3d011682016040523d82523d5f602084013e6112c4565b606091505b50509050806113235760405162461bcd60e51b815260206004820152602560248201527f53747261746d6f73546f6b656e3a20526577617264207472616e736665722066604482015264185a5b195960da1b60648201526084016107ea565b5050505050565b6005546001600160a01b03163314610a585760405163118cdaa760e01b81523360048201526024016107ea565b6001600160a01b0382166113805760405163ec442f0560e01b81525f60048201526024016107ea565b610a6c5f83836114e2565b6001600160a01b0382166113b457604051634b637e8f60e11b81525f60048201526024016107ea565b610a6c825f836114e2565b600580546001600160a01b038381166001600160a01b0319831681179093556040519116919082907f8be0079c531659141344cd1fd0a4f28419497f9722a3daafe3b4186f6b6457e0905f90a35050565b6001600160a01b0384166114395760405163e602df0560e01b81525f60048201526024016107ea565b6001600160a01b03831661146257604051634a1406b160e11b81525f60048201526024016107ea565b6001600160a01b038085165f908152600160209081526040808320938716835292905220829055801561116a57826001600160a01b0316846001600160a01b03167f8c5be1e5ebec7d5bd14f71427d1e84f3dd0314c0f7b2291e5b200ac8c7c3b925846040516114d491815260200190565b60405180910390a350505050565b6001600160a01b03831661150c578060025f8282546115019190611652565b9091555061157c9050565b6001600160a01b0383165f908152602081905260409020548181101561155e5760405163391434e360e21b81526001600160a01b038516600482015260248101829052604481018390526064016107ea565b6001600160a01b0384165f9081526020819052604090209082900390555b6001600160a01b038216611598576002805482900390556115b6565b6001600160a01b0382165f9081526020819052604090208054820190555b816001600160a01b0316836001600160a01b03167fddf252ad1be2c89b69c2b068fc378daa952ba7f163c4a11628f55a4df523b3ef836040516115fb91815260200190565b60405180910390a3505050565b634e487b7160e01b5f52601160045260245ffd5b808202811582820484141761075457610754611608565b5f8261164d57634e487b7160e01b5f52601260045260245ffd5b500490565b8082018082111561075457610754611608565b5f6020808352835180828501525f5b8181101561169057858101830151858201604001528201611674565b505f604082860101526040601f19601f8301168501019250505092915050565b80356001600160a01b03811681146116c6575f80fd5b919050565b5f80604083850312156116dc575f80fd5b6116e5836116b0565b946020939093013593505050565b5f805f60608486031215611705575f80fd5b61170e846116b0565b925061171c602085016116b0565b9150604084013590509250925092565b5f6020828403121561173c575f80fd5b5035919050565b5f60208284031215611753575f80fd5b61175c826116b0565b9392505050565b5f8060408385031215611774575f80fd5b61177d836116b0565b915061178b602084016116b0565b90509250929050565b600181811c908216806117a857607f821691505b6020821081036117c657634e487b7160e01b5f52602260045260245ffd5b50919050565b818103818111156107545761075461160856fea2646970667358221220563d54dfc0b94459e81df9d7aea0f67ba6b3d5c168b07e97cf01da1b86145d5464736f6c63430008140033",
  "linkReferences": {},
  "deployedLinkReferences": {},
  "immutableReferences": {},
  "inputSourceName": "project/contracts/StratmosToken.sol",
  "buildInfoId": "solc-0_8_20-5cdebf895fd15ec4164424104309848b21b32e17"
}