{
  "_format": "hh3-artifact-1",
  "contractName": "TournamentPool",
  "sourceName": "contracts/TournametPool.sol",
  "abi": [
    {
      "inputs": [
        {
          "internalType": "address",
          "name": "_oracle",
          "type": "address"
        }
      ],
      "stateMutability": "nonpayable",
      "type": "constructor"
    },
    {
      "inputs": [
        {
          "internalType": "address",
          "name": "owner",
          "type": "address"
        }
      ],
      "name": "OwnableInvalidOwner",
      "type": "error"
    },
    {
      "inputs": [
        {
          "internalType": "address",
          "name": "account",
          "type": "address"
        }
      ],
      "name": "OwnableUnauthorizedAccount",
      "type": "error"
    },
    {
      "inputs": [],
      "name": "ReentrancyGuardReentrantCall",
      "type": "error"
    },
    {
      "anonymous": false,
      "inputs": [
        {
          "indexed": true,
          "internalType": "address",
          "name": "previousOwner",
          "type": "address"
        },
        {
          "indexed": true,
          "internalType": "address",
          "name": "newOwner",
          "type": "address"
        }
      ],
      "name": "OwnershipTransferred",
      "type": "event"
    },
    {
      "anonymous": false,
      "inputs": [
        {
          "indexed": true,
          "internalType": "uint256",
          "name": "tournamentId",
          "type": "uint256"
        },
        {
          "indexed": true,
          "internalType": "address",
          "name": "participant",
          "type": "address"
        },
        {
          "indexed": false,
          "internalType": "uint256",
          "name": "participantCount",
          "type": "uint256"
        }
      ],
      "name": "ParticipantRegistered",
      "type": "event"
    },
    {
      "anonymous": false,
      "inputs": [
        {
          "indexed": true,
          "internalType": "uint256",
          "name": "tournamentId",
          "type": "uint256"
        },
        {
          "indexed": false,
          "internalType": "address[]",
          "name": "winners",
          "type": "address[]"
        },
        {
          "indexed": false,
          "internalType": "uint256[]",
          "name": "amounts",
          "type": "uint256[]"
        }
      ],
      "name": "PrizesDistributed",
      "type": "event"
    },
    {
      "anonymous": false,
      "inputs": [
        {
          "indexed": true,
          "internalType": "uint256",
          "name": "tournamentId",
          "type": "uint256"
        },
        {
          "indexed": false,
          "internalType": "string",
          "name": "reason",
          "type": "string"
        }
      ],
      "name": "TournamentCancelled",
      "type": "event"
    },
    {
      "anonymous": false,
      "inputs": [
        {
          "indexed": true,
          "internalType": "uint256",
          "name": "tournamentId",
          "type": "uint256"
        },
        {
          "indexed": false,
          "internalType": "address[]",
          "name": "winners",
          "type": "address[]"
        }
      ],
      "name": "TournamentCompleted",
      "type": "event"
    },
    {
      "anonymous": false,
      "inputs": [
        {
          "indexed": true,
          "internalType": "uint256",
          "name": "tournamentId",
          "type": "uint256"
        },
        {
          "indexed": false,
          "internalType": "string",
          "name": "name",
          "type": "string"
        },
        {
          "indexed": false,
          "internalType": "bytes32",
          "name": "gameType",
          "type": "bytes32"
        },
        {
          "indexed": false,
          "internalType": "uint256",
          "name": "entryFee",
          "type": "uint256"
        },
        {
          "indexed": false,
          "internalType": "uint256",
          "name": "maxParticipants",
          "type": "uint256"
        }
      ],
      "name": "TournamentCreated",
      "type": "event"
    },
    {
      "anonymous": false,
      "inputs": [
        {
          "indexed": true,
          "internalType": "uint256",
          "name": "tournamentId",
          "type": "uint256"
        },
        {
          "indexed": false,
          "internalType": "uint256",
          "name": "participantCount",
          "type": "uint256"
        },
        {
          "indexed": false,
          "internalType": "uint256",
          "name": "prizePool",
          "type": "uint256"
        }
      ],
      "name": "TournamentStarted",
      "type": "event"
    },
    {
      "inputs": [],
      "name": "BPS_DENOMINATOR",
      "outputs": [
        {
          "internalType": "uint256",
          "name": "",
          "type": "uint256"
        }
      ],
      "stateMutability": "view",
      "type": "function"
    },
    {
      "inputs": [],
      "name": "FIRST_PLACE_BPS",
      "outputs": [
        {
          "internalType": "uint256",
          "name": "",
          "type": "uint256"
        }
      ],
      "stateMutability": "view",
      "type": "function"
    },
    {
      "inputs": [],
      "name": "PLATFORM_FEE_BPS",
      "outputs": [
        {
          "internalType": "uint256",
          "name": "",
          "type": "uint256"
        }
      ],
      "stateMutability": "view",
      "type": "function"
    },
    {
      "inputs": [],
      "name": "SECOND_PLACE_BPS",
      "outputs": [
        {
          "internalType": "uint256",
          "name": "",
          "type": "uint256"
        }
      ],
      "stateMutability": "view",
      "type": "function"
    },
    {
      "inputs": [],
      "name": "THIRD_PLACE_BPS",
      "outputs": [
        {
          "internalType": "uint256",
          "name": "",
          "type": "uint256"
        }
      ],
      "stateMutability": "view",
      "type": "function"
    },
    {
      "inputs": [
        {
          "internalType": "uint256",
          "name": "_tournamentId",
          "type": "uint256"
        },
        {
          "internalType": "string",
          "name": "_reason",
          "type": "string"
        }
      ],
      "name": "cancelTournament",
      "outputs": [],
      "stateMutability": "nonpayable",
      "type": "function"
    },
    {
      "inputs": [
        {
          "internalType": "uint256",
          "name": "_tournamentId",
          "type": "uint256"
        },
        {
          "internalType": "address[]",
          "name": "_winners",
          "type": "address[]"
        }
      ],
      "name": "completeTournament",
      "outputs": [],
      "stateMutability": "nonpayable",
      "type": "function"
    },
    {
      "inputs": [
        {
          "internalType": "string",
          "name": "_name",
          "type": "string"
        },
        {
          "internalType": "bytes32",
          "name": "_gameType",
          "type": "bytes32"
        },
        {
          "internalType": "uint256",
          "name": "_entryFee",
          "type": "uint256"
        },
        {
          "internalType": "uint256",
          "name": "_startTime",
          "type": "uint256"
        },
        {
          "internalType": "uint256",
          "name": "_maxParticipants",
          "type": "uint256"
        },
        {
          "internalType": "uint256",
          "name": "_minParticipants",
          "type": "uint256"
        }
      ],
      "name": "createTournament",
      "outputs": [
        {
          "internalType": "uint256",
          "name": "",
          "type": "uint256"
        }
      ],
      "stateMutability": "nonpayable",
      "type": "function"
    },
    {
      "inputs": [
        {
          "internalType": "uint256",
          "name": "",
          "type": "uint256"
        },
        {
          "internalType": "uint256",
          "name": "",
          "type": "uint256"
        }
      ],
      "name": "customPayouts",
      "outputs": [
        {
          "internalType": "uint256",
          "name": "",
          "type": "uint256"
        }
      ],
      "stateMutability": "view",
      "type": "function"
    },
    {
      "inputs": [
        {
          "internalType": "uint256",
          "name": "_tournamentId",
          "type": "uint256"
        }
      ],
      "name": "distributePrizes",
      "outputs": [],
      "stateMutability": "nonpayable",
      "type": "function"
    },
    {
      "inputs": [
        {
          "internalType": "uint256",
          "name": "_tournamentId",
          "type": "uint256"
        }
      ],
      "name": "getParticipants",
      "outputs": [
        {
          "internalType": "address[]",
          "name": "",
          "type": "address[]"
        }
      ],
      "stateMutability": "view",
      "type": "function"
    },
    {
      "inputs": [
        {
          "internalType": "uint256",
          "name": "_tournamentId",
          "type": "uint256"
        }
      ],
      "name": "getTournament",
      "outputs": [
        {
          "internalType": "uint256",
          "name": "id",
          "type": "uint256"
        },
        {
          "internalType": "string",
          "name": "name",
          "type": "string"
        },
        {
          "internalType": "bytes32",
          "name": "gameType",
          "type": "bytes32"
        },
        {
          "internalType": "uint256",
          "name": "entryFee",
          "type": "uint256"
        },
        {
          "internalType": "uint256",
          "name": "prizePool",
          "type": "uint256"
        },
        {
          "internalType": "uint256",
          "name": "startTime",
          "type": "uint256"
        },
        {
          "internalType": "uint256",
          "name": "participantCount",
          "type": "uint256"
        },
        {
          "internalType": "uint256",
          "name": "maxParticipants",
          "type": "uint256"
        },
        {
          "internalType": "enum TournamentPool.TournamentStatus",
          "name": "status",
          "type": "uint8"
        }
      ],
      "stateMutability": "view",
      "type": "function"
    },
    {
      "inputs": [],
      "name": "getUpcomingTournamentsCount",
      "outputs": [
        {
          "internalType": "uint256",
          "name": "",
          "type": "uint256"
        }
      ],
      "stateMutability": "view",
      "type": "function"
    },
    {
      "inputs": [
        {
          "internalType": "uint256",
          "name": "_tournamentId",
          "type": "uint256"
        }
      ],
      "name": "getWinners",
      "outputs": [
        {
          "internalType": "address[]",
          "name": "",
          "type": "address[]"
        }
      ],
      "stateMutability": "view",
      "type": "function"
    },
    {
      "inputs": [
        {
          "internalType": "uint256",
          "name": "",
          "type": "uint256"
        },
        {
          "internalType": "address",
          "name": "",
          "type": "address"
        }
      ],
      "name": "hasRegistered",
      "outputs": [
        {
          "internalType": "bool",
          "name": "",
          "type": "bool"
        }
      ],
      "stateMutability": "view",
      "type": "function"
    },
    {
      "inputs": [],
      "name": "owner",
      "outputs": [
        {
          "internalType": "address",
          "name": "",
          "type": "address"
        }
      ],
      "stateMutability": "view",
      "type": "function"
    },
    {
      "inputs": [
        {
          "internalType": "uint256",
          "name": "_tournamentId",
          "type": "uint256"
        }
      ],
      "name": "registerForTournament",
      "outputs": [],
      "stateMutability": "payable",
      "type": "function"
    },
    {
      "inputs": [],
      "name": "renounceOwnership",
      "outputs": [],
      "stateMutability": "nonpayable",
      "type": "function"
    },
    {
      "inputs": [
        {
          "internalType": "address",
          "name": "_newOracle",
          "type": "address"
        }
      ],
      "name": "setOracle",
      "outputs": [],
      "stateMutability": "nonpayable",
      "type": "function"
    },
    {
      "inputs": [
        {
          "internalType": "uint256",
          "name": "_tournamentId",
          "type": "uint256"
        },
        {
          "internalType": "uint256[]",
          "name": "_payouts",
          "type": "uint256[]"
        }
      ],
      "name": "setPayoutStructure",
      "outputs": [],
      "stateMutability": "nonpayable",
      "type": "function"
    },
    {
      "inputs": [
        {
          "internalType": "uint256",
          "name": "_tournamentId",
          "type": "uint256"
        }
      ],
      "name": "startTournament",
      "outputs": [],
      "stateMutability": "nonpayable",
      "type": "function"
    },
    {
      "inputs": [],
      "name": "tournamentCounter",
      "outputs": [
        {
          "internalType": "uint256",
          "name": "",
          "type": "uint256"
        }
      ],
      "stateMutability": "view",
      "type": "function"
    },
    {
      "inputs": [],
      "name": "tournamentOracle",
      "outputs": [
        {
          "internalType": "address",
          "name": "",
          "type": "address"
        }
      ],
      "stateMutability": "view",
      "type": "function"
    },
    {
      "inputs": [
        {
          "internalType": "uint256",
          "name": "",
          "type": "uint256"
        }
      ],
      "name": "tournaments",
      "outputs": [
        {
          "internalType": "uint256",
          "name": "id",
          "type": "uint256"
        },
        {
          "internalType": "string",
          "name": "name",
          "type": "string"
        },
        {
          "internalType": "bytes32",
          "name": "gameType",
          "type": "bytes32"
        },
        {
          "internalType": "uint256",
          "name": "entryFee",
          "type": "uint256"
        },
        {
          "internalType": "uint256",
          "name": "prizePool",
          "type": "uint256"
        },
        {
          "internalType": "uint256",
          "name": "startTime",
          "type": "uint256"
        },
        {
          "internalType": "uint256",
          "name": "maxParticipants",
          "type": "uint256"
        },
        {
          "internalType": "uint256",
          "name": "minParticipants",
          "type": "uint256"
        },
        {
          "internalType": "enum TournamentPool.TournamentStatus",
          "name": "status",
          "type": "uint8"
        },
        {
          "internalType": "bool",
          "name": "prizesDistributed",
          "type": "bool"
        }
      ],
      "stateMutability": "view",
      "type": "function"
    },
    {
      "inputs": [
        {
          "internalType": "address",
          "name": "newOwner",
          "type": "address"
        }
      ],
      "name": "transferOwnership",
      "outputs": [],
      "stateMutability": "nonpayable",
      "type": "function"
    },
    {
      "inputs": [],
      "name": "treasuryBalance",
      "outputs": [
        {
          "internalType": "uint256",
          "name": "",
          "type": "uint256"
        }
      ],
      "stateMutability": "view",
      "type": "function"
    },
    {
      "inputs": [
        {
          "internalType": "uint256",
          "name": "_amount",
          "type": "uint256"
        }
      ],
      "name": "withdrawTreasury",
      "outputs": [],
      "stateMutability": "nonpayable",
      "type": "function"
    }
  ],
  "bytecode": "0x608060405234801562000010575f80fd5b50604051620026d1380380620026d18339810160408190526200003391620000e0565b60015f5533806200005d57604051631e4fbdf760e01b81525f600482015260240160405180910390fd5b62000068816200008f565b50600780546001600160a01b0319166001600160a01b03929092169190911790556200010f565b600180546001600160a01b038381166001600160a01b0319831681179093556040519116919082907f8be0079c531659141344cd1fd0a4f28419497f9722a3daafe3b4186f6b6457e0905f90a35050565b5f60208284031215620000f1575f80fd5b81516001600160a01b038116811462000108575f80fd5b9392505050565b6125b4806200011d5f395ff3fe608060405260043610610195575f3560e01c80637503e1b7116100e7578063a2fe8da211610087578063c1e3bd3e11610062578063c1e3bd3e1461046b578063e1a452181461048a578063ef15914a1461049f578063f2fde38b146104e8575f80fd5b8063a2fe8da21461042d578063a4b9328b14610441578063c03eee3214610456575f80fd5b80637adbf973116100c25780637adbf973146103bd57806383f3d6a6146103dc5780638da5cb5b146103fb5780639787412414610418575f80fd5b80637503e1b71461034a57806376f0ceaa1461037f578063773bfdf91461039e575f80fd5b80635acda644116101525780636ca3fc3b1161012d5780636ca3fc3b146102e3578063715018a6146103025780637358b1551461031657806373ed5c1c14610335575f80fd5b80635acda64414610279578063651ea943146102985780636b1426a4146102b7575f80fd5b806311f1fc99146101995780631a5bd7fc146101ba578063313dab20146101f7578063334f7deb1461021a5780635170c6461461022d578063539aa77f14610264575b5f80fd5b3480156101a4575f80fd5b506101b86101b3366004611e8a565b610507565b005b3480156101c5575f80fd5b506101d96101d4366004611e8a565b61063f565b6040516101ee99989796959493929190611f18565b60405180910390f35b348015610202575f80fd5b5061020c60065481565b6040519081526020016101ee565b6101b8610228366004611e8a565b610741565b348015610238575f80fd5b5060075461024c906001600160a01b031681565b6040516001600160a01b0390911681526020016101ee565b34801561026f575f80fd5b5061020c6103e881565b348015610284575f80fd5b5061020c610293366004611fb9565b6109f7565b3480156102a3575f80fd5b506101b86102b2366004611e8a565b610e3c565b3480156102c2575f80fd5b506102d66102d1366004611e8a565b611004565b6040516101ee919061201e565b3480156102ee575f80fd5b506101b86102fd366004611e8a565b611070565b34801561030d575f80fd5b506101b861141f565b348015610321575f80fd5b506101b861033036600461206a565b611432565b348015610340575f80fd5b5061020c60025481565b348015610355575f80fd5b50610369610364366004611e8a565b611618565b6040516101ee9a999897969594939291906120b2565b34801561038a575f80fd5b506101b8610399366004612159565b6116f4565b3480156103a9575f80fd5b506101b86103b8366004612159565b611859565b3480156103c8575f80fd5b506101b86103d73660046121af565b611ae0565b3480156103e7575f80fd5b5061020c6103f63660046121cf565b611b60565b348015610406575f80fd5b506001546001600160a01b031661024c565b348015610423575f80fd5b5061020c610bb881565b348015610438575f80fd5b5061020c611b8b565b34801561044c575f80fd5b5061020c61138881565b348015610461575f80fd5b5061020c6107d081565b348015610476575f80fd5b506102d6610485366004611e8a565b611c06565b348015610495575f80fd5b5061020c61271081565b3480156104aa575f80fd5b506104d86104b93660046121ef565b600460209081525f928352604080842090915290825290205460ff1681565b60405190151581526020016101ee565b3480156104f3575f80fd5b506101b86105023660046121af565b611c70565b61050f611caa565b610517611cd7565b80600654101561057c5760405162461bcd60e51b815260206004820152602560248201527f546f75726e616d656e74506f6f6c3a20496e73756666696369656e7420747265604482015264617375727960d81b60648201526084015b60405180910390fd5b8060065f82825461058d919061222d565b90915550506001546040515f916001600160a01b03169083908381818185875af1925050503d805f81146105dc576040519150601f19603f3d011682016040523d82523d5f602084013e6105e1565b606091505b50509050806106325760405162461bcd60e51b815260206004820152601f60248201527f546f75726e616d656e74506f6f6c3a205472616e73666572206661696c6564006044820152606401610573565b5061063c60015f55565b50565b5f60605f805f805f805f8060035f8c81526020019081526020015f209050805f015481600101826002015483600301548460040154856005015486600801805490508760060154886009015f9054906101000a900460ff168780546106a390612246565b80601f01602080910402602001604051908101604052809291908181526020018280546106cf90612246565b801561071a5780601f106106f15761010080835404028352916020019161071a565b820191905f5260205f20905b8154815290600101906020018083116106fd57829003601f168201915b50505050509750995099509950995099509950995099509950509193959799909294969850565b610749611cd7565b5f81815260036020526040812090600982015460ff16600381111561077057610770611ee4565b146107c95760405162461bcd60e51b815260206004820152602360248201527f546f75726e616d656e74506f6f6c3a204e6f7420696e2072656769737472617460448201526234b7b760e91b6064820152608401610573565b806005015442106108285760405162461bcd60e51b815260206004820152602360248201527f546f75726e616d656e74506f6f6c3a20526567697374726174696f6e20636c6f6044820152621cd95960ea1b6064820152608401610573565b5f82815260046020908152604080832033845290915290205460ff161561089c5760405162461bcd60e51b815260206004820152602260248201527f546f75726e616d656e74506f6f6c3a20416c7265616479207265676973746572604482015261195960f21b6064820152608401610573565b60068101546008820154106108f35760405162461bcd60e51b815260206004820152601f60248201527f546f75726e616d656e74506f6f6c3a20546f75726e616d656e742066756c6c006044820152606401610573565b806003015434146109525760405162461bcd60e51b815260206004820152602360248201527f546f75726e616d656e74506f6f6c3a20496e636f727265637420656e7472792060448201526266656560e81b6064820152608401610573565b6008810180546001810182555f918252602082200180546001600160a01b0319163317905560048201805434929061098b908490612278565b90915550505f8281526004602090815260408083203380855290835292819020805460ff191660011790556008840154905190815284917fc6cad70b1c06faaedb0ac1c61cd49ecf92fb0807a058dadf5cd78e132a38be90910160405180910390a35061063c60015f55565b5f610a00611caa565b428411610a5b5760405162461bcd60e51b8152602060048201526024808201527f546f75726e616d656e74506f6f6c3a205374617274206d7573742062652066756044820152637475726560e01b6064820152608401610573565b6002831015610ac15760405162461bcd60e51b815260206004820152602c60248201527f546f75726e616d656e74506f6f6c3a204e656564206174206c6561737420322060448201526b7061727469636970616e747360a01b6064820152608401610573565b6002821015610b285760405162461bcd60e51b815260206004820152602d60248201527f546f75726e616d656e74506f6f6c3a204d696e207061727469636970616e747360448201526c1036bab9ba103132901f1e901960991b6064820152608401610573565b82821115610b875760405162461bcd60e51b815260206004820152602660248201527f546f75726e616d656e74506f6f6c3a204d696e203e204d6178207061727469636044820152656970616e747360d01b6064820152608401610573565b600280545f9182610b978361228b565b9190505590506040518061018001604052808281526020018a8a8080601f0160208091040260200160405190810160405280939291908181526020018383808284375f92018290525093855250505060208083018b905260408084018b905260608401839052608084018a905260a0840189905260c084018890528051838152808301825260e08501526101008401839052805183815280830182526101208501526101409093018290528482526003815291902082518155908201516001820190610c6390826122fc565b5060408201516002820155606082015160038201556080820151600482015560a0820151600582015560c0820151600682015560e082015160078201556101008201518051610cbc916008840191602090910190611d50565b5061012082015160098201805460ff19166001836003811115610ce157610ce1611ee4565b02179055506101408201518051610d0291600a840191602090910190611d50565b506101609190910151600b909101805460ff19169115159190911790556040805160038082526080820190925290602082016060803683375050505f8281526005602090815260409091208251610d5f9391929190910190611db3565b505f81815260056020526040812080546113889290610d8057610d806123b8565b905f5260205f200181905550610bb860055f8381526020019081526020015f20600181548110610db257610db26123b8565b905f5260205f2001819055506107d060055f8381526020019081526020015f20600281548110610de457610de46123b8565b905f5260205f200181905550807f9caa5eb039f5689a2e6e4ad6d7d5e4038d60bd969cd39bee42bcdddfd5c1140f8a8a8a8a89604051610e289594939291906123f4565b60405180910390a298975050505050505050565b6007546001600160a01b0316331480610e5f57506001546001600160a01b031633145b610e7b5760405162461bcd60e51b815260040161057390612424565b5f81815260036020526040812090600982015460ff166003811115610ea257610ea2611ee4565b14610eef5760405162461bcd60e51b815260206004820152601c60248201527f546f75726e616d656e74506f6f6c3a2057726f6e6720737461747573000000006044820152606401610573565b8060050154421015610f435760405162461bcd60e51b815260206004820152601960248201527f546f75726e616d656e74506f6f6c3a20546f6f206561726c79000000000000006044820152606401610573565b600781015460088201541015610fab5760405162461bcd60e51b815260206004820152602760248201527f546f75726e616d656e74506f6f6c3a204e6f7420656e6f756768207061727469604482015266636970616e747360c81b6064820152608401610573565b60098101805460ff191660011790556008810154600482015460408051928352602083019190915283917f2b4fbc018be75e6ff98b219698828856ce311122193b11596150e17268e2ee31910160405180910390a25050565b5f81815260036020908152604091829020600a0180548351818402810184019094528084526060939283018282801561106457602002820191905f5260205f20905b81546001600160a01b03168152600190910190602001808311611046575b50505050509050919050565b6007546001600160a01b031633148061109357506001546001600160a01b031633145b6110af5760405162461bcd60e51b815260040161057390612424565b6110b7611cd7565b5f8181526003602052604090206002600982015460ff1660038111156110df576110df611ee4565b1461112c5760405162461bcd60e51b815260206004820152601d60248201527f546f75726e616d656e74506f6f6c3a204e6f7420636f6d706c657465640000006044820152606401610573565b600b81015460ff161561118d5760405162461bcd60e51b815260206004820152602360248201527f546f75726e616d656e74506f6f6c3a20416c72656164792064697374726962756044820152621d195960ea1b6064820152608401610573565b600a8101546111de5760405162461bcd60e51b815260206004820152601e60248201527f546f75726e616d656e74506f6f6c3a204e6f2077696e6e6572732073657400006044820152606401610573565b600b8101805460ff1916600117905560048101545f9061271090611205906103e89061245b565b61120f9190612472565b90508060065f8282546112229190612278565b909155505060048201545f9061123990839061222d565b600a8401549091505f9067ffffffffffffffff81111561125b5761125b6122a3565b604051908082528060200260200182016040528015611284578160200160208202803683370190505b5090505f5b600a8501548110156113d4575f6112a46103e861271061222d565b5f8881526005602052604090208054849081106112c3576112c36123b8565b905f5260205f200154856112d7919061245b565b6112e19190612472565b9050808383815181106112f6576112f66123b8565b6020026020010181815250505f86600a018381548110611318576113186123b8565b5f9182526020822001546040516001600160a01b039091169184919081818185875af1925050503d805f8114611369576040519150601f19603f3d011682016040523d82523d5f602084013e61136e565b606091505b50509050806113bf5760405162461bcd60e51b815260206004820152601f60248201527f546f75726e616d656e74506f6f6c3a205472616e73666572206661696c6564006044820152606401610573565b505080806113cc9061228b565b915050611289565b50847fec92dccf4a03653bc1a3d85019574bf62a659c47575779a889806684783b9e5c85600a018360405161140a929190612491565b60405180910390a25050505061063c60015f55565b611427611caa565b6114305f611cff565b565b61143a611caa565b611442611cd7565b5f83815260036020526040812090600982015460ff16600381111561146957611469611ee4565b148061148d57506001600982015460ff16600381111561148b5761148b611ee4565b145b6114d95760405162461bcd60e51b815260206004820152601d60248201527f546f75726e616d656e74506f6f6c3a2043616e6e6f742063616e63656c0000006044820152606401610573565b60098101805460ff191660031790555f5b60088201548110156115ce575f82600801828154811061150c5761150c6123b8565b5f91825260208220015460038501546040516001600160a01b03909216935083918381818185875af1925050503d805f8114611563576040519150601f19603f3d011682016040523d82523d5f602084013e611568565b606091505b50509050806115b95760405162461bcd60e51b815260206004820152601d60248201527f546f75726e616d656e74506f6f6c3a20526566756e64206661696c65640000006044820152606401610573565b505080806115c69061228b565b9150506114ea565b50837f9cff57647ab5e296e4e83c901cc2490c4b03b7d221d2f186a2dd00434400b78f8484604051611601929190612518565b60405180910390a25061161360015f55565b505050565b60036020525f90815260409020805460018201805491929161163990612246565b80601f016020809104026020016040519081016040528092919081815260200182805461166590612246565b80156116b05780601f10611687576101008083540402835291602001916116b0565b820191905f5260205f20905b81548152906001019060200180831161169357829003601f168201915b50505060028401546003850154600486015460058701546006880154600789015460098a0154600b909a0154989995989497509295509093909260ff91821691168a565b6116fc611caa565b5f83815260036020526040812090600982015460ff16600381111561172357611723611ee4565b146117895760405162461bcd60e51b815260206004820152603060248201527f546f75726e616d656e74506f6f6c3a2043616e6e6f74206d6f6469667920616660448201526f3a32b9103932b3b4b9ba3930ba34b7b760811b6064820152608401610573565b5f805b838110156117cc578484828181106117a6576117a66123b8565b90506020020135826117b89190612278565b9150806117c48161228b565b91505061178c565b506117db6103e861271061222d565b81146118395760405162461bcd60e51b815260206004820152602760248201527f546f75726e616d656e74506f6f6c3a205061796f757473206d7573742073756d60448201526620746f2039302560c81b6064820152608401610573565b5f858152600560205260409020611851908585611dec565b505050505050565b6007546001600160a01b031633148061187c57506001546001600160a01b031633145b6118985760405162461bcd60e51b815260040161057390612424565b5f8381526003602052604090206001600982015460ff1660038111156118c0576118c0611ee4565b1461190d5760405162461bcd60e51b815260206004820152601a60248201527f546f75726e616d656e74506f6f6c3a204e6f74206163746976650000000000006044820152606401610573565b8161195a5760405162461bcd60e51b815260206004820152601c60248201527f546f75726e616d656e74506f6f6c3a204e6565642077696e6e657273000000006044820152606401610573565b5f848152600560205260409020548211156119b75760405162461bcd60e51b815260206004820181905260248201527f546f75726e616d656e74506f6f6c3a20546f6f206d616e792077696e6e6572736044820152606401610573565b5f5b82811015611a81575f858152600460205260408120908585848181106119e1576119e16123b8565b90506020020160208101906119f691906121af565b6001600160a01b0316815260208101919091526040015f205460ff16611a6f5760405162461bcd60e51b815260206004820152602860248201527f546f75726e616d656e74506f6f6c3a2057696e6e6572206e6f742061207061726044820152671d1a58da5c185b9d60c21b6064820152608401610573565b80611a798161228b565b9150506119b9565b5060098101805460ff19166002179055611a9f600a82018484611e25565b50837fd5a0643cd0389eabd14072288c2998e92533984a3b7bf7d049012dc7e4e1eac38484604051611ad2929190612533565b60405180910390a250505050565b611ae8611caa565b6001600160a01b038116611b3e5760405162461bcd60e51b815260206004820152601e60248201527f546f75726e616d656e74506f6f6c3a20496e76616c6964206f7261636c6500006044820152606401610573565b600780546001600160a01b0319166001600160a01b0392909216919091179055565b6005602052815f5260405f208181548110611b79575f80fd5b905f5260205f20015f91509150505481565b5f80805b600254811015611c00575f81815260036020819052604082206009015460ff1690811115611bbf57611bbf611ee4565b148015611bdb57505f8181526003602052604090206005015442105b15611bee5781611bea8161228b565b9250505b80611bf88161228b565b915050611b8f565b50919050565b5f8181526003602090815260409182902060080180548351818402810184019094528084526060939283018282801561106457602002820191905f5260205f209081546001600160a01b031681526001909101906020018083116110465750505050509050919050565b611c78611caa565b6001600160a01b038116611ca157604051631e4fbdf760e01b81525f6004820152602401610573565b61063c81611cff565b6001546001600160a01b031633146114305760405163118cdaa760e01b8152336004820152602401610573565b60025f5403611cf957604051633ee5aeb560e01b815260040160405180910390fd5b60025f55565b600180546001600160a01b038381166001600160a01b0319831681179093556040519116919082907f8be0079c531659141344cd1fd0a4f28419497f9722a3daafe3b4186f6b6457e0905f90a35050565b828054828255905f5260205f20908101928215611da3579160200282015b82811115611da357825182546001600160a01b0319166001600160a01b03909116178255602090920191600190910190611d6e565b50611daf929150611e76565b5090565b828054828255905f5260205f20908101928215611da3579160200282015b82811115611da3578251825591602001919060010190611dd1565b828054828255905f5260205f20908101928215611da3579160200282015b82811115611da3578235825591602001919060010190611e0a565b828054828255905f5260205f20908101928215611da3579160200282015b82811115611da35781546001600160a01b0319166001600160a01b03843516178255602090920191600190910190611e43565b5b80821115611daf575f8155600101611e77565b5f60208284031215611e9a575f80fd5b5035919050565b5f81518084525f5b81811015611ec557602081850181015186830182015201611ea9565b505f602082860101526020601f19601f83011685010191505092915050565b634e487b7160e01b5f52602160045260245ffd5b60048110611f1457634e487b7160e01b5f52602160045260245ffd5b9052565b5f6101208b8352806020840152611f318184018c611ea1565b9150508860408301528760608301528660808301528560a08301528460c08301528360e0830152611f66610100830184611ef8565b9a9950505050505050505050565b5f8083601f840112611f84575f80fd5b50813567ffffffffffffffff811115611f9b575f80fd5b602083019150836020828501011115611fb2575f80fd5b9250929050565b5f805f805f805f60c0888a031215611fcf575f80fd5b873567ffffffffffffffff811115611fe5575f80fd5b611ff18a828b01611f74565b909b909a5060208a01359960408101359950606081013598506080810135975060a0013595509350505050565b602080825282518282018190525f9190848201906040850190845b8181101561205e5783516001600160a01b031683529284019291840191600101612039565b50909695505050505050565b5f805f6040848603121561207c575f80fd5b83359250602084013567ffffffffffffffff811115612099575f80fd5b6120a586828701611f74565b9497909650939450505050565b5f6101408c83528060208401526120cb8184018d611ea1565b9150508960408301528860608301528760808301528660a08301528560c08301528460e0830152612100610100830185611ef8565b8215156101208301529b9a5050505050505050505050565b5f8083601f840112612128575f80fd5b50813567ffffffffffffffff81111561213f575f80fd5b6020830191508360208260051b8501011115611fb2575f80fd5b5f805f6040848603121561216b575f80fd5b83359250602084013567ffffffffffffffff811115612188575f80fd5b6120a586828701612118565b80356001600160a01b03811681146121aa575f80fd5b919050565b5f602082840312156121bf575f80fd5b6121c882612194565b9392505050565b5f80604083850312156121e0575f80fd5b50508035926020909101359150565b5f8060408385031215612200575f80fd5b8235915061221060208401612194565b90509250929050565b634e487b7160e01b5f52601160045260245ffd5b8181038181111561224057612240612219565b92915050565b600181811c9082168061225a57607f821691505b602082108103611c0057634e487b7160e01b5f52602260045260245ffd5b8082018082111561224057612240612219565b5f6001820161229c5761229c612219565b5060010190565b634e487b7160e01b5f52604160045260245ffd5b601f821115611613575f81815260208120601f850160051c810160208610156122dd5750805b601f850160051c820191505b81811015611851578281556001016122e9565b815167ffffffffffffffff811115612316576123166122a3565b61232a816123248454612246565b846122b7565b602080601f83116001811461235d575f84156123465750858301515b5f19600386901b1c1916600185901b178555611851565b5f85815260208120601f198616915b8281101561238b5788860151825594840194600190910190840161236c565b50858210156123a857878501515f19600388901b60f8161c191681555b5050505050600190811b01905550565b634e487b7160e01b5f52603260045260245ffd5b81835281816020850137505f828201602090810191909152601f909101601f19169091010190565b608081525f6124076080830187896123cc565b602083019590955250604081019290925260609091015292915050565b6020808252601e908201527f546f75726e616d656e74506f6f6c3a204e6f7420617574686f72697a65640000604082015260600190565b808202811582820484141761224057612240612219565b5f8261248c57634e487b7160e01b5f52601260045260245ffd5b500490565b5f6040820160408352808554808352606085019150865f5260209250825f205f5b828110156124d75781546001600160a01b0316845292840192600191820191016124b2565b505050838103828501528451808252858301918301905f5b8181101561250b578351835292840192918401916001016124ef565b5090979650505050505050565b602081525f61252b6020830184866123cc565b949350505050565b60208082528181018390525f908460408401835b86811015612573576001600160a01b0361256084612194565b1682529183019190830190600101612547565b50969550505050505056fea26469706673582212200bd49f3f4abad86116998446c90836fed03848ca9bdec05c284cee5c1aa19ce764736f6c63430008140033",
  "linkReferences": {},
  "deployedLinkReferences": {},
  "immutableReferences": {},
  "inputSourceName": "project/contracts/TournametPool.sol",
  "buildInfoId": "solc-0_8_20-5cdebf895fd15ec4164424104309848b21b32e17"
}