{
  "_format": "hh3-artifact-1",
  "contractName": "WagerEscrow",
  "sourceName": "contracts/WagerEscrow.sol",
  "abi": [
    {
      "inputs": [
        {
          "internalType": "address",
          "name": "_gameOracle",
          "type": "address"
        }
      ],
      "stateMutability": "nonpayable",
      "type": "constructor"
    },
    {
      "inputs": [
        {
          "internalType": "address",
          "name": "owner",
          "type": "address"
        }
      ],
      "name": "OwnableInvalidOwner",
      "type": "error"
    },
    {
      "inputs": [
        {
          "internalType": "address",
          "name": "account",
          "type": "address"
        }
      ],
      "name": "OwnableUnauthorizedAccount",
      "type": "error"
    },
    {
      "inputs": [],
      "name": "ReentrancyGuardReentrantCall",
      "type": "error"
    },
    {
      "anonymous": false,
      "inputs": [
        {
          "indexed": true,
          "internalType": "address",
          "name": "agent",
          "type": "address"
        },
        {
          "indexed": false,
          "internalType": "uint256",
          "name": "amount",
          "type": "uint256"
        }
      ],
      "name": "Deposited",
      "type": "event"
    },
    {
      "anonymous": false,
      "inputs": [
        {
          "indexed": true,
          "internalType": "bytes32",
          "name": "matchId",
          "type": "bytes32"
        },
        {
          "indexed": false,
          "internalType": "string",
          "name": "reason",
          "type": "string"
        }
      ],
      "name": "MatchCancelled",
      "type": "event"
    },
    {
      "anonymous": false,
      "inputs": [
        {
          "indexed": true,
          "internalType": "bytes32",
          "name": "matchId",
          "type": "bytes32"
        },
        {
          "indexed": true,
          "internalType": "address",
          "name": "agent1",
          "type": "address"
        },
        {
          "indexed": true,
          "internalType": "address",
          "name": "agent2",
          "type": "address"
        },
        {
          "indexed": false,
          "internalType": "uint256",
          "name": "wager",
          "type": "uint256"
        },
        {
          "indexed": false,
          "internalType": "bytes32",
          "name": "gameType",
          "type": "bytes32"
        }
      ],
      "name": "MatchCreated",
      "type": "event"
    },
    {
      "anonymous": false,
      "inputs": [
        {
          "indexed": true,
          "internalType": "bytes32",
          "name": "matchId",
          "type": "bytes32"
        }
      ],
      "name": "MatchDraw",
      "type": "event"
    },
    {
      "anonymous": false,
      "inputs": [
        {
          "indexed": true,
          "internalType": "bytes32",
          "name": "matchId",
          "type": "bytes32"
        },
        {
          "indexed": false,
          "internalType": "address",
          "name": "winner",
          "type": "address"
        },
        {
          "indexed": false,
          "internalType": "uint256",
          "name": "payout",
          "type": "uint256"
        }
      ],
      "name": "MatchSettled",
      "type": "event"
    },
    {
      "anonymous": false,
      "inputs": [
        {
          "indexed": true,
          "internalType": "address",
          "name": "oldOracle",
          "type": "address"
        },
        {
          "indexed": true,
          "internalType": "address",
          "name": "newOracle",
          "type": "address"
        }
      ],
      "name": "OracleUpdated",
      "type": "event"
    },
    {
      "anonymous": false,
      "inputs": [
        {
          "indexed": true,
          "internalType": "address",
          "name": "previousOwner",
          "type": "address"
        },
        {
          "indexed": true,
          "internalType": "address",
          "name": "newOwner",
          "type": "address"
        }
      ],
      "name": "OwnershipTransferred",
      "type": "event"
    },
    {
      "anonymous": false,
      "inputs": [
        {
          "indexed": true,
          "internalType": "address",
          "name": "agent",
          "type": "address"
        },
        {
          "indexed": false,
          "internalType": "uint256",
          "name": "amount",
          "type": "uint256"
        }
      ],
      "name": "Withdrawn",
      "type": "event"
    },
    {
      "inputs": [],
      "name": "BPS_DENOMINATOR",
      "outputs": [
        {
          "internalType": "uint256",
          "name": "",
          "type": "uint256"
        }
      ],
      "stateMutability": "view",
      "type": "function"
    },
    {
      "inputs": [],
      "name": "MATCH_TIMEOUT",
      "outputs": [
        {
          "internalType": "uint256",
          "name": "",
          "type": "uint256"
        }
      ],
      "stateMutability": "view",
      "type": "function"
    },
    {
      "inputs": [],
      "name": "PLATFORM_FEE_BPS",
      "outputs": [
        {
          "internalType": "uint256",
          "name": "",
          "type": "uint256"
        }
      ],
      "stateMutability": "view",
      "type": "function"
    },
    {
      "inputs": [
        {
          "internalType": "address",
          "name": "",
          "type": "address"
        }
      ],
      "name": "agentBalances",
      "outputs": [
        {
          "internalType": "uint256",
          "name": "",
          "type": "uint256"
        }
      ],
      "stateMutability": "view",
      "type": "function"
    },
    {
      "inputs": [
        {
          "internalType": "bytes32",
          "name": "_matchId",
          "type": "bytes32"
        }
      ],
      "name": "cancelTimedOutMatch",
      "outputs": [],
      "stateMutability": "nonpayable",
      "type": "function"
    },
    {
      "inputs": [
        {
          "internalType": "address",
          "name": "_agent1",
          "type": "address"
        },
        {
          "internalType": "address",
          "name": "_agent2",
          "type": "address"
        },
        {
          "internalType": "uint256",
          "name": "_wager",
          "type": "uint256"
        },
        {
          "internalType": "bytes32",
          "name": "_gameType",
          "type": "bytes32"
        }
      ],
      "name": "createMatch",
      "outputs": [
        {
          "internalType": "bytes32",
          "name": "matchId",
          "type": "bytes32"
        }
      ],
      "stateMutability": "nonpayable",
      "type": "function"
    },
    {
      "inputs": [],
      "name": "deposit",
      "outputs": [],
      "stateMutability": "payable",
      "type": "function"
    },
    {
      "inputs": [],
      "name": "gameOracle",
      "outputs": [
        {
          "internalType": "address",
          "name": "",
          "type": "address"
        }
      ],
      "stateMutability": "view",
      "type": "function"
    },
    {
      "inputs": [
        {
          "internalType": "address",
          "name": "_agent",
          "type": "address"
        }
      ],
      "name": "getBalance",
      "outputs": [
        {
          "internalType": "uint256",
          "name": "",
          "type": "uint256"
        }
      ],
      "stateMutability": "view",
      "type": "function"
    },
    {
      "inputs": [
        {
          "internalType": "bytes32",
          "name": "_matchId",
          "type": "bytes32"
        }
      ],
      "name": "getMatch",
      "outputs": [
        {
          "components": [
            {
              "internalType": "address",
              "name": "agent1",
              "type": "address"
            },
            {
              "internalType": "address",
              "name": "agent2",
              "type": "address"
            },
            {
              "internalType": "uint256",
              "name": "wager",
              "type": "uint256"
            },
            {
              "internalType": "bytes32",
              "name": "gameType",
              "type": "bytes32"
            },
            {
              "internalType": "uint256",
              "name": "createdAt",
              "type": "uint256"
            },
            {
              "internalType": "bool",
              "name": "settled",
              "type": "bool"
            },
            {
              "internalType": "address",
              "name": "winner",
              "type": "address"
            },
            {
              "internalType": "enum WagerEscrow.MatchStatus",
              "name": "status",
              "type": "uint8"
            }
          ],
          "internalType": "struct WagerEscrow.Match",
          "name": "",
          "type": "tuple"
        }
      ],
      "stateMutability": "view",
      "type": "function"
    },
    {
      "inputs": [
        {
          "internalType": "bytes32",
          "name": "_matchId",
          "type": "bytes32"
        }
      ],
      "name": "isMatchActive",
      "outputs": [
        {
          "internalType": "bool",
          "name": "",
          "type": "bool"
        }
      ],
      "stateMutability": "view",
      "type": "function"
    },
    {
      "inputs": [],
      "name": "matchCounter",
      "outputs": [
        {
          "internalType": "uint256",
          "name": "",
          "type": "uint256"
        }
      ],
      "stateMutability": "view",
      "type": "function"
    },
    {
      "inputs": [
        {
          "internalType": "bytes32",
          "name": "",
          "type": "bytes32"
        }
      ],
      "name": "matches",
      "outputs": [
        {
          "internalType": "address",
          "name": "agent1",
          "type": "address"
        },
        {
          "internalType": "address",
          "name": "agent2",
          "type": "address"
        },
        {
          "internalType": "uint256",
          "name": "wager",
          "type": "uint256"
        },
        {
          "internalType": "bytes32",
          "name": "gameType",
          "type": "bytes32"
        },
        {
          "internalType": "uint256",
          "name": "createdAt",
          "type": "uint256"
        },
        {
          "internalType": "bool",
          "name": "settled",
          "type": "bool"
        },
        {
          "internalType": "address",
          "name": "winner",
          "type": "address"
        },
        {
          "internalType": "enum WagerEscrow.MatchStatus",
          "name": "status",
          "type": "uint8"
        }
      ],
      "stateMutability": "view",
      "type": "function"
    },
    {
      "inputs": [],
      "name": "owner",
      "outputs": [
        {
          "internalType": "address",
          "name": "",
          "type": "address"
        }
      ],
      "stateMutability": "view",
      "type": "function"
    },
    {
      "inputs": [],
      "name": "renounceOwnership",
      "outputs": [],
      "stateMutability": "nonpayable",
      "type": "function"
    },
    {
      "inputs": [
        {
          "internalType": "address",
          "name": "_newOracle",
          "type": "address"
        }
      ],
      "name": "setGameOracle",
      "outputs": [],
      "stateMutability": "nonpayable",
      "type": "function"
    },
    {
      "inputs": [
        {
          "internalType": "bytes32",
          "name": "_matchId",
          "type": "bytes32"
        }
      ],
      "name": "settleDraw",
      "outputs": [],
      "stateMutability": "nonpayable",
      "type": "function"
    },
    {
      "inputs": [
        {
          "internalType": "bytes32",
          "name": "_matchId",
          "type": "bytes32"
        },
        {
          "internalType": "address",
          "name": "_winner",
          "type": "address"
        }
      ],
      "name": "settleMatch",
      "outputs": [],
      "stateMutability": "nonpayable",
      "type": "function"
    },
    {
      "inputs": [
        {
          "internalType": "address",
          "name": "newOwner",
          "type": "address"
        }
      ],
      "name": "transferOwnership",
      "outputs": [],
      "stateMutability": "nonpayable",
      "type": "function"
    },
    {
      "inputs": [],
      "name": "treasuryBalance",
      "outputs": [
        {
          "internalType": "uint256",
          "name": "",
          "type": "uint256"
        }
      ],
      "stateMutability": "view",
      "type": "function"
    },
    {
      "inputs": [
        {
          "internalType": "uint256",
          "name": "_amount",
          "type": "uint256"
        }
      ],
      "name": "withdraw",
      "outputs": [],
      "stateMutability": "nonpayable",
      "type": "function"
    },
    {
      "inputs": [
        {
          "internalType": "uint256",
          "name": "_amount",
          "type": "uint256"
        }
      ],
      "name": "withdrawTreasury",
      "outputs": [],
      "stateMutability": "nonpayable",
      "type": "function"
    },
    {
      "stateMutability": "payable",
      "type": "receive"
    }
  ],
  "bytecode": "0x608060405234801561000f575f80fd5b5060405161185f38038061185f83398101604081905261002e91610100565b60015f55338061005757604051631e4fbdf760e01b81525f600482015260240160405180910390fd5b610060816100af565b50600580546001600160a01b0319166001600160a01b0383169081179091556040515f907f078c3b417dadf69374a59793b829c52001247130433427049317bde56607b1b7908290a35061012d565b600180546001600160a01b038381166001600160a01b0319831681179093556040519116919082907f8be0079c531659141344cd1fd0a4f28419497f9722a3daafe3b4186f6b6457e0905f90a35050565b5f60208284031215610110575f80fd5b81516001600160a01b0381168114610126575f80fd5b9392505050565b6117258061013a5f395ff3fe608060405260043610610133575f3560e01c80638da5cb5b116100a8578063e1a452181161006d578063e1a45218146103da578063eadb0ff2146103ef578063f2fde38b1461041e578063f8b2cb4f1461043d578063fc40b42014610471578063fcc6077d14610490575f80fd5b80638da5cb5b146102fa578063926590dd146103175780639fe9ada31461032c578063a5275ebd146103b3578063d0e30db0146103d2575f80fd5b8063313dab20116100f9578063313dab20146102605780633b6b07d914610275578063539aa77f1461029457806359f83bae146102a8578063715018a6146102c75780638ae4d33e146102db575f80fd5b806234c8e31461019657806301fd1951146101d257806311f1fc99146101f557806325b16a8b146102165780632e1a7d4d14610241575f80fd5b3661019257335f9081526003602052604081208054349290610156908490611445565b909155505060405134815233907f2da466a7b24304f47e87fa2e1e5a81b9831ce54fec19055ce277ca2f39ba42c49060200160405180910390a2005b5f80fd5b3480156101a1575f80fd5b506005546101b5906001600160a01b031681565b6040516001600160a01b0390911681526020015b60405180910390f35b3480156101dd575f80fd5b506101e760065481565b6040519081526020016101c9565b348015610200575f80fd5b5061021461020f36600461145e565b6104bc565b005b348015610221575f80fd5b506101e7610230366004611490565b60036020525f908152604090205481565b34801561024c575f80fd5b5061021461025b36600461145e565b6105f1565b34801561026b575f80fd5b506101e760045481565b348015610280575f80fd5b5061021461028f3660046114b0565b610759565b34801561029f575f80fd5b506101e760c881565b3480156102b3575f80fd5b506102146102c236600461145e565b6109a8565b3480156102d2575f80fd5b50610214610b31565b3480156102e6575f80fd5b506102146102f536600461145e565b610b44565b348015610305575f80fd5b506001546001600160a01b03166101b5565b348015610322575f80fd5b506101e761070881565b348015610337575f80fd5b5061039f61034636600461145e565b600260208190525f91825260409091208054600182015492820154600383015460048401546005909401546001600160a01b0393841695841694929391929160ff80831692610100810490921691600160a81b90041688565b6040516101c998979695949392919061150e565b3480156103be575f80fd5b506102146103cd366004611490565b610cc7565b610214610d76565b3480156103e5575f80fd5b506101e761271081565b3480156103fa575f80fd5b5061040e61040936600461145e565b610e31565b60405190151581526020016101c9565b348015610429575f80fd5b50610214610438366004611490565b610e67565b348015610448575f80fd5b506101e7610457366004611490565b6001600160a01b03165f9081526003602052604090205490565b34801561047c575f80fd5b506101e761048b366004611566565b610ea1565b34801561049b575f80fd5b506104af6104aa36600461145e565b61129a565b6040516101c991906115a5565b6104c461138b565b6104cc6113b8565b80600454101561052e5760405162461bcd60e51b815260206004820152602260248201527f5761676572457363726f773a20496e73756666696369656e7420747265617375604482015261727960f01b60648201526084015b60405180910390fd5b8060045f82825461053f9190611616565b90915550506001546040515f916001600160a01b03169083908381818185875af1925050503d805f811461058e576040519150601f19603f3d011682016040523d82523d5f602084013e610593565b606091505b50509050806105e45760405162461bcd60e51b815260206004820152601c60248201527f5761676572457363726f773a205472616e73666572206661696c6564000000006044820152606401610525565b506105ee60015f55565b50565b6105f96113b8565b335f908152600360205260409020548111156106615760405162461bcd60e51b815260206004820152602160248201527f5761676572457363726f773a20496e73756666696369656e742062616c616e636044820152606560f81b6064820152608401610525565b335f908152600360205260408120805483929061067f908490611616565b90915550506040515f90339083908381818185875af1925050503d805f81146106c3576040519150601f19603f3d011682016040523d82523d5f602084013e6106c8565b606091505b50509050806107195760405162461bcd60e51b815260206004820152601c60248201527f5761676572457363726f773a205472616e73666572206661696c6564000000006044820152606401610525565b60405182815233907f7084f5476618d8e60b11ef0d7d3f06914655adb8793e28ff7f018d4c76d505d5906020015b60405180910390a2506105ee60015f55565b6005546001600160a01b031633146107835760405162461bcd60e51b815260040161052590611629565b61078b6113b8565b5f82815260026020526040902060016005820154600160a81b900460ff1660048111156107ba576107ba6114da565b146107d75760405162461bcd60e51b81526004016105259061166a565b600581015460ff161561082c5760405162461bcd60e51b815260206004820152601c60248201527f5761676572457363726f773a20416c726561647920736574746c6564000000006044820152606401610525565b80546001600160a01b0383811691161480610856575060018101546001600160a01b038381169116145b6108a25760405162461bcd60e51b815260206004820152601b60248201527f5761676572457363726f773a20496e76616c69642077696e6e657200000000006044820152606401610525565b6005810180546001600160a01b038416610100026001600160a81b03199091161760011760ff60a81b1916600160a91b1790556002808201545f916108e791906116a1565b90505f6127106108f860c8846116a1565b61090291906116b8565b90505f61090f8284611616565b90508160045f8282546109229190611445565b90915550506001600160a01b0385165f908152600360205260408120805483929061094e908490611445565b9091555050604080516001600160a01b03871681526020810183905287917f14ac1a1d6d58b42c5b0a60d79339143a7e35eb5506b03e3170250535895d6833910160405180910390a2505050506109a460015f55565b5050565b6005546001600160a01b031633146109d25760405162461bcd60e51b815260040161052590611629565b6109da6113b8565b5f81815260026020526040902060016005820154600160a81b900460ff166004811115610a0957610a096114da565b14610a265760405162461bcd60e51b81526004016105259061166a565b600581015460ff1615610a7b5760405162461bcd60e51b815260206004820152601c60248201527f5761676572457363726f773a20416c726561647920736574746c6564000000006044820152606401610525565b60058101805460ff60ff60a81b0119166001600360a81b01179055600281015481546001600160a01b03165f9081526003602052604081208054909190610ac3908490611445565b9091555050600281015460018201546001600160a01b03165f9081526003602052604081208054909190610af8908490611445565b909155505060405182907fb619d1ded32802dd11fb429a4aa01a3138201d4423eae0fb594eba7c07f084e9905f90a2506105ee60015f55565b610b3961138b565b610b425f6113e0565b565b610b4c6113b8565b5f81815260026020526040902060016005820154600160a81b900460ff166004811115610b7b57610b7b6114da565b14610b985760405162461bcd60e51b81526004016105259061166a565b6107088160040154610baa9190611445565b421015610bf95760405162461bcd60e51b815260206004820152601e60248201527f5761676572457363726f773a204e6f742074696d6564206f75742079657400006044820152606401610525565b60058101805460ff60ff60a81b0119166001600160aa1b01179055600281015481546001600160a01b03165f9081526003602052604081208054909190610c41908490611445565b9091555050600281015460018201546001600160a01b03165f9081526003602052604081208054909190610c76908490611445565b92505081905550817fab30b638cf85f207265a560a604a68ce9ed9a7599ce09737f380eb1dccba6b2660405161074790602080825260079082015266151a5b595bdd5d60ca1b604082015260600190565b610ccf61138b565b6001600160a01b038116610d255760405162461bcd60e51b815260206004820152601b60248201527f5761676572457363726f773a20496e76616c6964206f7261636c6500000000006044820152606401610525565b600580546001600160a01b038381166001600160a01b0319831681179093556040519116919082907f078c3b417dadf69374a59793b829c52001247130433427049317bde56607b1b7905f90a35050565b5f3411610dd75760405162461bcd60e51b815260206004820152602960248201527f5761676572457363726f773a204d757374206465706f73697420706f736974696044820152681d9948185b5bdd5b9d60ba1b6064820152608401610525565b335f9081526003602052604081208054349290610df5908490611445565b909155505060405134815233907f2da466a7b24304f47e87fa2e1e5a81b9831ce54fec19055ce277ca2f39ba42c49060200160405180910390a2565b5f60015f83815260026020526040902060050154600160a81b900460ff166004811115610e6057610e606114da565b1492915050565b610e6f61138b565b6001600160a01b038116610e9857604051631e4fbdf760e01b81525f6004820152602401610525565b6105ee816113e0565b5f836001600160a01b0316856001600160a01b031603610f115760405162461bcd60e51b815260206004820152602560248201527f5761676572457363726f773a2043616e6e6f7420706c617920616761696e73746044820152641039b2b63360d91b6064820152608401610525565b5f8311610f6c5760405162461bcd60e51b815260206004820152602360248201527f5761676572457363726f773a205761676572206d75737420626520706f73697460448201526269766560e81b6064820152608401610525565b6001600160a01b0385165f90815260036020526040902054831115610fe45760405162461bcd60e51b815260206004820152602860248201527f5761676572457363726f773a20496e73756666696369656e742062616c616e6360448201526765206167656e743160c01b6064820152608401610525565b6001600160a01b0384165f9081526003602052604090205483111561105c5760405162461bcd60e51b815260206004820152602860248201527f5761676572457363726f773a20496e73756666696369656e742062616c616e63604482015267329030b3b2b73a1960c11b6064820152608401610525565b8484834260065f815480929190611072906116d7565b909155506040516bffffffffffffffffffffffff19606096871b811660208301529490951b909316603485015260488401919091526068830152608882015260a8016040516020818303038152906040528051906020012090508260035f876001600160a01b03166001600160a01b031681526020019081526020015f205f8282546110fe9190611616565b90915550506001600160a01b0384165f908152600360205260408120805485929061112a908490611616565b909155505060408051610100810182526001600160a01b03808816825286166020820152908101849052606081018390524260808201525f60a0820181905260c082015260e08101600190525f82815260026020818152604092839020845181546001600160a01b039182166001600160a01b0319918216178355928601516001830180549183169190941617909255928401519183019190915560608301516003830155608083015160048084019190915560a084015160058401805460c087015190941661010002610100600160a81b0319921515929092166001600160a81b0319909416939093171780835560e0850151929160ff60a81b1990911690600160a81b908490811115611241576112416114da565b02179055505060408051858152602081018590526001600160a01b03808816935088169184917ffc59d2933323f9ea7a79201a3e42f628524b610236a204cd435649aca79eef52910160405180910390a4949350505050565b6112de60408051610100810182525f80825260208201819052918101829052606081018290526080810182905260a0810182905260c081018290529060e082015290565b5f828152600260208181526040928390208351610100808201865282546001600160a01b03908116835260018401548116948301949094529382015494810194909452600381015460608501526004808201546080860152600582015460ff808216151560a088015294810490931660c0860152909260e0850192600160a81b90041690811115611371576113716114da565b6004811115611382576113826114da565b90525092915050565b6001546001600160a01b03163314610b425760405163118cdaa760e01b8152336004820152602401610525565b60025f54036113da57604051633ee5aeb560e01b815260040160405180910390fd5b60025f55565b600180546001600160a01b038381166001600160a01b0319831681179093556040519116919082907f8be0079c531659141344cd1fd0a4f28419497f9722a3daafe3b4186f6b6457e0905f90a35050565b634e487b7160e01b5f52601160045260245ffd5b8082018082111561145857611458611431565b92915050565b5f6020828403121561146e575f80fd5b5035919050565b80356001600160a01b038116811461148b575f80fd5b919050565b5f602082840312156114a0575f80fd5b6114a982611475565b9392505050565b5f80604083850312156114c1575f80fd5b823591506114d160208401611475565b90509250929050565b634e487b7160e01b5f52602160045260245ffd5b6005811061150a57634e487b7160e01b5f52602160045260245ffd5b9052565b6001600160a01b038981168252888116602083015260408201889052606082018790526080820186905284151560a0830152831660c0820152610100810161155960e08301846114ee565b9998505050505050505050565b5f805f8060808587031215611579575f80fd5b61158285611475565b935061159060208601611475565b93969395505050506040820135916060013590565b5f6101008201905060018060a01b0380845116835280602085015116602084015260408401516040840152606084015160608401526080840151608084015260a0840151151560a08401528060c08501511660c08401525060e083015161160f60e08401826114ee565b5092915050565b8181038181111561145857611458611431565b60208082526021908201527f5761676572457363726f773a204f6e6c79206f7261636c652063616e2063616c6040820152601b60fa1b606082015260800190565b6020808252601d908201527f5761676572457363726f773a204d61746368206e6f7420616374697665000000604082015260600190565b808202811582820484141761145857611458611431565b5f826116d257634e487b7160e01b5f52601260045260245ffd5b500490565b5f600182016116e8576116e8611431565b506001019056fea264697066735822122049e9f7f08d7b7770591e3170271f4babf026567338f965bd73331d584cc9fed764736f6c63430008140033",
  "linkReferences": {},
  "deployedLinkReferences": {},
  "immutableReferences": {},
  "inputSourceName": "project/contracts/WagerEscrow.sol",
  "buildInfoId": "solc-0_8_20-5cdebf895fd15ec4164424104309848b21b32e17"
}